{
  "contractName": "SupplyChainTracker",
  "abi": [
    {
      "inputs": [],
      "stateMutability": "nonpayable",
      "type": "constructor"
    },
    {
      "inputs": [],
      "name": "owner",
      "outputs": [
        {
          "internalType": "address",
          "name": "",
          "type": "address"
        }
      ],
      "stateMutability": "view",
      "type": "function",
      "constant": true
    },
    {
      "inputs": [
        {
          "internalType": "uint256",
          "name": "",
          "type": "uint256"
        }
      ],
      "name": "ownershipEvents",
      "outputs": [
        {
          "internalType": "address",
          "name": "newOwner",
          "type": "address"
        },
        {
          "internalType": "string",
          "name": "newLocation",
          "type": "string"
        },
        {
          "internalType": "uint256",
          "name": "timestamp",
          "type": "uint256"
        }
      ],
      "stateMutability": "view",
      "type": "function",
      "constant": true
    },
    {
      "inputs": [],
      "name": "productCount",
      "outputs": [
        {
          "internalType": "uint256",
          "name": "",
          "type": "uint256"
        }
      ],
      "stateMutability": "view",
      "type": "function",
      "constant": true
    },
    {
      "inputs": [
        {
          "internalType": "uint256",
          "name": "",
          "type": "uint256"
        }
      ],
      "name": "products",
      "outputs": [
        {
          "internalType": "uint256",
          "name": "id",
          "type": "uint256"
        },
        {
          "internalType": "string",
          "name": "name",
          "type": "string"
        },
        {
          "internalType": "address",
          "name": "manufacturer",
          "type": "address"
        },
        {
          "internalType": "string",
          "name": "serialNumber",
          "type": "string"
        },
        {
          "internalType": "address",
          "name": "currentOwner",
          "type": "address"
        },
        {
          "internalType": "string",
          "name": "currentLocation",
          "type": "string"
        },
        {
          "internalType": "uint256",
          "name": "timestamp",
          "type": "uint256"
        },
        {
          "internalType": "uint256",
          "name": "price",
          "type": "uint256"
        },
        {
          "internalType": "bool",
          "name": "isForSale",
          "type": "bool"
        }
      ],
      "stateMutability": "view",
      "type": "function",
      "constant": true
    },
    {
      "inputs": [
        {
          "internalType": "uint256",
          "name": "",
          "type": "uint256"
        }
      ],
      "name": "sensorData",
      "outputs": [
        {
          "internalType": "uint256",
          "name": "timestamp",
          "type": "uint256"
        },
        {
          "internalType": "string",
          "name": "paramName",
          "type": "string"
        },
        {
          "internalType": "string",
          "name": "paramValue_str",
          "type": "string"
        },
        {
          "internalType": "uint256",
          "name": "paramValue_num",
          "type": "uint256"
        },
        {
          "internalType": "string",
          "name": "location",
          "type": "string"
        }
      ],
      "stateMutability": "view",
      "type": "function",
      "constant": true
    },
    {
      "inputs": [
        {
          "internalType": "string",
          "name": "_name",
          "type": "string"
        },
        {
          "internalType": "address",
          "name": "_manufacturer",
          "type": "address"
        },
        {
          "internalType": "string",
          "name": "_serialNumber",
          "type": "string"
        },
        {
          "internalType": "address",
          "name": "_initialOwner",
          "type": "address"
        },
        {
          "internalType": "string",
          "name": "_initialLocation",
          "type": "string"
        },
        {
          "internalType": "uint256",
          "name": "_price",
          "type": "uint256"
        },
        {
          "internalType": "bool",
          "name": "_isForSale",
          "type": "bool"
        }
      ],
      "name": "addProduct",
      "outputs": [],
      "stateMutability": "payable",
      "type": "function",
      "payable": true
    },
    {
      "inputs": [
        {
          "internalType": "uint256",
          "name": "_productId",
          "type": "uint256"
        },
        {
          "internalType": "string",
          "name": "_newLocation",
          "type": "string"
        }
      ],
      "name": "updateLocation",
      "outputs": [],
      "stateMutability": "nonpayable",
      "type": "function"
    },
    {
      "inputs": [
        {
          "internalType": "uint256",
          "name": "_productId",
          "type": "uint256"
        },
        {
          "internalType": "uint256",
          "name": "_newPrice",
          "type": "uint256"
        }
      ],
      "name": "updatePrice",
      "outputs": [],
      "stateMutability": "nonpayable",
      "type": "function"
    },
    {
      "inputs": [
        {
          "internalType": "uint256",
          "name": "_productId",
          "type": "uint256"
        },
        {
          "internalType": "bool",
          "name": "_isForSale",
          "type": "bool"
        }
      ],
      "name": "updateIsForSale",
      "outputs": [],
      "stateMutability": "nonpayable",
      "type": "function"
    },
    {
      "inputs": [
        {
          "internalType": "uint256",
          "name": "_productId",
          "type": "uint256"
        },
        {
          "internalType": "address",
          "name": "_newOwner",
          "type": "address"
        },
        {
          "internalType": "string",
          "name": "_newLocation",
          "type": "string"
        }
      ],
      "name": "transferOwnership",
      "outputs": [],
      "stateMutability": "payable",
      "type": "function",
      "payable": true
    },
    {
      "inputs": [
        {
          "internalType": "uint256",
          "name": "_productId",
          "type": "uint256"
        }
      ],
      "name": "getOwnershipHistory",
      "outputs": [
        {
          "components": [
            {
              "internalType": "address",
              "name": "newOwner",
              "type": "address"
            },
            {
              "internalType": "string",
              "name": "newLocation",
              "type": "string"
            },
            {
              "internalType": "uint256",
              "name": "timestamp",
              "type": "uint256"
            }
          ],
          "internalType": "struct SupplyChainTracker.OwnershipEvent[]",
          "name": "",
          "type": "tuple[]"
        }
      ],
      "stateMutability": "view",
      "type": "function",
      "constant": true
    },
    {
      "inputs": [],
      "name": "getProducts",
      "outputs": [
        {
          "components": [
            {
              "internalType": "uint256",
              "name": "id",
              "type": "uint256"
            },
            {
              "internalType": "string",
              "name": "name",
              "type": "string"
            },
            {
              "internalType": "address",
              "name": "manufacturer",
              "type": "address"
            },
            {
              "internalType": "string",
              "name": "serialNumber",
              "type": "string"
            },
            {
              "internalType": "address",
              "name": "currentOwner",
              "type": "address"
            },
            {
              "internalType": "string",
              "name": "currentLocation",
              "type": "string"
            },
            {
              "internalType": "uint256",
              "name": "timestamp",
              "type": "uint256"
            },
            {
              "internalType": "uint256",
              "name": "price",
              "type": "uint256"
            },
            {
              "internalType": "bool",
              "name": "isForSale",
              "type": "bool"
            },
            {
              "internalType": "uint256[]",
              "name": "ownershipEventIds",
              "type": "uint256[]"
            },
            {
              "internalType": "uint256[]",
              "name": "sensorEventIds",
              "type": "uint256[]"
            }
          ],
          "internalType": "struct SupplyChainTracker.Product[]",
          "name": "",
          "type": "tuple[]"
        }
      ],
      "stateMutability": "view",
      "type": "function",
      "constant": true
    },
    {
      "inputs": [
        {
          "internalType": "uint256",
          "name": "_productId",
          "type": "uint256"
        },
        {
          "internalType": "string",
          "name": "_pName",
          "type": "string"
        },
        {
          "internalType": "string",
          "name": "_spValue",
          "type": "string"
        },
        {
          "internalType": "uint256",
          "name": "_snValue",
          "type": "uint256"
        },
        {
          "internalType": "string",
          "name": "_location",
          "type": "string"
        }
      ],
      "name": "recordSensorData",
      "outputs": [],
      "stateMutability": "nonpayable",
      "type": "function"
    },
    {
      "inputs": [
        {
          "internalType": "uint256",
          "name": "_productId",
          "type": "uint256"
        }
      ],
      "name": "getSensorData",
      "outputs": [
        {
          "components": [
            {
              "internalType": "uint256",
              "name": "timestamp",
              "type": "uint256"
            },
            {
              "internalType": "string",
              "name": "paramName",
              "type": "string"
            },
            {
              "internalType": "string",
              "name": "paramValue_str",
              "type": "string"
            },
            {
              "internalType": "uint256",
              "name": "paramValue_num",
              "type": "uint256"
            },
            {
              "internalType": "string",
              "name": "location",
              "type": "string"
            }
          ],
          "internalType": "struct SupplyChainTracker.SensorData[]",
          "name": "",
          "type": "tuple[]"
        }
      ],
      "stateMutability": "view",
      "type": "function",
      "constant": true
    }
  ],
  "bytecode": "0x608060405234801561001057600080fd5b50600080546001600160a01b03191633178155600155612304806100356000396000f3fe6080604052600436106100dd5760003560e01c80638da5cb5b1161007f578063e0f6ef8711610059578063e0f6ef8714610253578063ed044aa314610277578063f1dbaccb146102a4578063fe04d06f146102d157600080fd5b80638da5cb5b146101c8578063ab562a1d14610200578063c29b2f201461023157600080fd5b806371625641116100bb57806371625641146101375780637acc0b201461014a57806382367b2d146101885780638a107a2a146101a857600080fd5b806315bce7f6146100e25780634ec0c9e9146100f757806363e2d5d314610117575b600080fd5b6100f56100f0366004611b7b565b610300565b005b34801561010357600080fd5b506100f5610112366004611c3f565b6105cd565b34801561012357600080fd5b506100f5610132366004611c86565b610699565b6100f5610145366004611cb2565b610764565b34801561015657600080fd5b5061016a610165366004611d09565b610a02565b60405161017f99989796959493929190611d6f565b60405180910390f35b34801561019457600080fd5b506100f56101a3366004611def565b610c04565b3480156101b457600080fd5b506100f56101c3366004611e11565b610cb8565b3480156101d457600080fd5b506000546101e8906001600160a01b031681565b6040516001600160a01b03909116815260200161017f565b34801561020c57600080fd5b5061022061021b366004611d09565b610e06565b60405161017f959493929190611ead565b34801561023d57600080fd5b50610246610fcd565b60405161017f9190611f39565b34801561025f57600080fd5b5061026960015481565b60405190815260200161017f565b34801561028357600080fd5b50610297610292366004611d09565b6113c0565b60405161017f9190612082565b3480156102b057600080fd5b506102c46102bf366004611d09565b6116ec565b60405161017f919061212b565b3480156102dd57600080fd5b506102f16102ec366004611d09565b611906565b60405161017f939291906121a9565b336001600160a01b038716146103685760405162461bcd60e51b815260206004820152602260248201527f4f6e6c79206d616e7566616374757265722063616e206164642070726f647563604482015261747360f01b60648201526084015b60405180910390fd5b606461037583600a6121f3565b61037f9190612212565b3410156103c15760405162461bcd60e51b815260206004820152601060248201526f496e73756666696369656e742066656560801b604482015260640161035f565b6040518061016001604052806001548152602001888152602001876001600160a01b03168152602001868152602001856001600160a01b031681526020018481526020014281526020018381526020018215158152602001600067ffffffffffffffff81111561043357610433611aac565b60405190808252806020026020018201604052801561045c578160200160208202803683370190505b508152602001600060405190808252806020026020018201604052801561048d578160200160208202803683370190505b5090526001805460009081526002602090815260409091208351815583820151805191936104c193908501929101906119d9565b5060408201516002820180546001600160a01b0319166001600160a01b03909216919091179055606082015180516105039160038401916020909101906119d9565b5060808201516004820180546001600160a01b0319166001600160a01b0390921691909117905560a082015180516105459160058401916020909101906119d9565b5060c0820151600682015560e0820151600782015561010082015160088201805460ff1916911515919091179055610120820151805161058f916009840191602090910190611a5d565b5061014082015180516105ac91600a840191602090910190611a5d565b505060018054915060006105bf83612234565b919050555050505050505050565b60015482106105ee5760405162461bcd60e51b815260040161035f9061224d565b6000828152600260205260409020600401546001600160a01b0316331461066f5760405162461bcd60e51b815260206004820152602f60248201527f4f6e6c79207468652063757272656e74206f776e65722063616e20757064617460448201526e32903a3432903637b1b0ba34b7b71760891b606482015260840161035f565b60008281526002602090815260409091208251610694926005909201918401906119d9565b505050565b60015482106106ba5760405162461bcd60e51b815260040161035f9061224d565b6000828152600260205260409020600401546001600160a01b031633146107415760405162461bcd60e51b815260206004820152603560248201527f4f6e6c79207468652063757272656e74206f776e65722063616e20757064617460448201527432903a34329034b9a337b929b0b63290333630b39760591b606482015260840161035f565b600091825260026020526040909120600801805460ff1916911515919091179055565b60015483106107855760405162461bcd60e51b815260040161035f9061224d565b6000838152600260205260409020600401546001600160a01b0316330361080a5760405162461bcd60e51b815260206004820152603360248201527f43757272656e74206f776e65722063616e27742062757920612066726f6d20706044820152723937b23ab1ba10333937b6903434b6b9b2b63360691b606482015260840161035f565b60008381526002602052604090206008015460ff1661087b5760405162461bcd60e51b815260206004820152602760248201527f546869732070726f64756374206973206e6f742063757272656e746c7920666f604482015266391039b0b6329760c91b606482015260840161035f565b6000838152600260205260409020600701543410156108d45760405162461bcd60e51b815260206004820152601560248201527424b739bab33334b1b4b2b73a103830bcb6b2b73a1760591b604482015260640161035f565b60008381526002602090815260409091206004810180546001600160a01b0319166001600160a01b0386161790558251610916926005909201918401906119d9565b506000838152600260205260408082206004015490516001600160a01b03909116913480156108fc02929091818181858888f1935050505015801561095f573d6000803e3d6000fd5b50600061096a6119bb565b604080516060810182526001600160a01b0386811682526020808301878152428486015260008681526003835294909420835181546001600160a01b031916931692909217825592518051949550919390926109cd9260018501929101906119d9565b506040918201516002918201556000958652602090815290852060090180546001810182559086529420909301929092555050565b60026020526000908152604090208054600182018054919291610a2490612284565b80601f0160208091040260200160405190810160405280929190818152602001828054610a5090612284565b8015610a9d5780601f10610a7257610100808354040283529160200191610a9d565b820191906000526020600020905b815481529060010190602001808311610a8057829003601f168201915b505050600284015460038501805494956001600160a01b03909216949193509150610ac790612284565b80601f0160208091040260200160405190810160405280929190818152602001828054610af390612284565b8015610b405780601f10610b1557610100808354040283529160200191610b40565b820191906000526020600020905b815481529060010190602001808311610b2357829003601f168201915b505050600484015460058501805494956001600160a01b03909216949193509150610b6a90612284565b80601f0160208091040260200160405190810160405280929190818152602001828054610b9690612284565b8015610be35780601f10610bb857610100808354040283529160200191610be3565b820191906000526020600020905b815481529060010190602001808311610bc657829003601f168201915b50505050600683015460078401546008909401549293909290915060ff1689565b6001548210610c255760405162461bcd60e51b815260040161035f9061224d565b6000828152600260205260409020600401546001600160a01b03163314610ca35760405162461bcd60e51b815260206004820152602c60248201527f4f6e6c79207468652063757272656e74206f776e65722063616e20757064617460448201526b32903a343290383934b1b29760a11b606482015260840161035f565b60009182526002602052604090912060070155565b6000858152600260205260409020600401546001600160a01b03163314610d375760405162461bcd60e51b815260206004820152602d60248201527f4f6e6c79207468652063757272656e74206f776e65722063616e207265636f7260448201526c642073656e736f72206461746160981b606482015260840161035f565b6000610d416119bb565b6040805160a081018252428152602080820189815282840189905260608301889052608083018790526000858152600483529390932082518155925180519495509193610d9492600185019201906119d9565b5060408201518051610db09160028401916020909101906119d9565b506060820151600382015560808201518051610dd69160048401916020909101906119d9565b50505060009586526002602090815260408720600a01805460018101825590885296209095019490945550505050565b60046020526000908152604090208054600182018054919291610e2890612284565b80601f0160208091040260200160405190810160405280929190818152602001828054610e5490612284565b8015610ea15780601f10610e7657610100808354040283529160200191610ea1565b820191906000526020600020905b815481529060010190602001808311610e8457829003601f168201915b505050505090806002018054610eb690612284565b80601f0160208091040260200160405190810160405280929190818152602001828054610ee290612284565b8015610f2f5780601f10610f0457610100808354040283529160200191610f2f565b820191906000526020600020905b815481529060010190602001808311610f1257829003601f168201915b505050505090806003015490806004018054610f4a90612284565b80601f0160208091040260200160405190810160405280929190818152602001828054610f7690612284565b8015610fc35780601f10610f9857610100808354040283529160200191610fc3565b820191906000526020600020905b815481529060010190602001808311610fa657829003601f168201915b5050505050905085565b6060600060015467ffffffffffffffff811115610fec57610fec611aac565b60405190808252806020026020018201604052801561108e57816020015b61107b604051806101600160405280600081526020016060815260200160006001600160a01b031681526020016060815260200160006001600160a01b0316815260200160608152602001600081526020016000815260200160001515815260200160608152602001606081525090565b81526020019060019003908161100a5790505b50905060005b6001548110156113ba576002600082815260200190815260200160002060405180610160016040529081600082015481526020016001820180546110d790612284565b80601f016020809104026020016040519081016040528092919081815260200182805461110390612284565b80156111505780601f1061112557610100808354040283529160200191611150565b820191906000526020600020905b81548152906001019060200180831161113357829003601f168201915b505050918352505060028201546001600160a01b0316602082015260038201805460409092019161118090612284565b80601f01602080910402602001604051908101604052809291908181526020018280546111ac90612284565b80156111f95780601f106111ce576101008083540402835291602001916111f9565b820191906000526020600020905b8154815290600101906020018083116111dc57829003601f168201915b505050918352505060048201546001600160a01b0316602082015260058201805460409092019161122990612284565b80601f016020809104026020016040519081016040528092919081815260200182805461125590612284565b80156112a25780601f10611277576101008083540402835291602001916112a2565b820191906000526020600020905b81548152906001019060200180831161128557829003601f168201915b5050505050815260200160068201548152602001600782015481526020016008820160009054906101000a900460ff161515151581526020016009820180548060200260200160405190810160405280929190818152602001828054801561132957602002820191906000526020600020905b815481526020019060010190808311611315575b50505050508152602001600a820180548060200260200160405190810160405280929190818152602001828054801561138157602002820191906000526020600020905b81548152602001906001019080831161136d575b50505050508152505082828151811061139c5761139c6122b8565b602002602001018190525080806113b290612234565b915050611094565b50919050565b6000818152600260209081526040808320600a0180548251818502810185019093528083526060949383018282801561141857602002820191906000526020600020905b815481526020019060010190808311611404575b505050505090506000815167ffffffffffffffff81111561143b5761143b611aac565b60405190808252806020026020018201604052801561149e57816020015b61148b6040518060a0016040528060008152602001606081526020016060815260200160008152602001606081525090565b8152602001906001900390816114595790505b50905060005b82518110156116e45760008382815181106114c1576114c16122b8565b60200260200101519050600460008281526020019081526020016000206040518060a00160405290816000820154815260200160018201805461150390612284565b80601f016020809104026020016040519081016040528092919081815260200182805461152f90612284565b801561157c5780601f106115515761010080835404028352916020019161157c565b820191906000526020600020905b81548152906001019060200180831161155f57829003601f168201915b5050505050815260200160028201805461159590612284565b80601f01602080910402602001604051908101604052809291908181526020018280546115c190612284565b801561160e5780601f106115e35761010080835404028352916020019161160e565b820191906000526020600020905b8154815290600101906020018083116115f157829003601f168201915b505050505081526020016003820154815260200160048201805461163190612284565b80601f016020809104026020016040519081016040528092919081815260200182805461165d90612284565b80156116aa5780601f1061167f576101008083540402835291602001916116aa565b820191906000526020600020905b81548152906001019060200180831161168d57829003601f168201915b5050505050815250508383815181106116c5576116c56122b8565b60200260200101819052505080806116dc90612234565b9150506114a4565b509392505050565b600081815260026020908152604080832060090180548251818502810185019093528083526060949383018282801561174457602002820191906000526020600020905b815481526020019060010190808311611730575b505050505090506000815167ffffffffffffffff81111561176757611767611aac565b6040519080825280602002602001820160405280156117c557816020015b6117b2604051806060016040528060006001600160a01b0316815260200160608152602001600081525090565b8152602001906001900390816117855790505b50905060005b82518110156116e457600360008483815181106117ea576117ea6122b8565b602002602001015181526020019081526020016000206040518060600160405290816000820160009054906101000a90046001600160a01b03166001600160a01b03166001600160a01b0316815260200160018201805461184a90612284565b80601f016020809104026020016040519081016040528092919081815260200182805461187690612284565b80156118c35780601f10611898576101008083540402835291602001916118c3565b820191906000526020600020905b8154815290600101906020018083116118a657829003601f168201915b505050505081526020016002820154815250508282815181106118e8576118e86122b8565b602002602001018190525080806118fe90612234565b9150506117cb565b600360205260009081526040902080546001820180546001600160a01b03909216929161193290612284565b80601f016020809104026020016040519081016040528092919081815260200182805461195e90612284565b80156119ab5780601f10611980576101008083540402835291602001916119ab565b820191906000526020600020905b81548152906001019060200180831161198e57829003601f168201915b5050505050908060020154905083565b60058054600091826119cc83612234565b9190505550600554905090565b8280546119e590612284565b90600052602060002090601f016020900481019282611a075760008555611a4d565b82601f10611a2057805160ff1916838001178555611a4d565b82800160010185558215611a4d579182015b82811115611a4d578251825591602001919060010190611a32565b50611a59929150611a97565b5090565b828054828255906000526020600020908101928215611a4d5791602002820182811115611a4d578251825591602001919060010190611a32565b5b80821115611a595760008155600101611a98565b634e487b7160e01b600052604160045260246000fd5b600082601f830112611ad357600080fd5b813567ffffffffffffffff80821115611aee57611aee611aac565b604051601f8301601f19908116603f01168101908282118183101715611b1657611b16611aac565b81604052838152866020858801011115611b2f57600080fd5b836020870160208301376000602085830101528094505050505092915050565b80356001600160a01b0381168114611b6657600080fd5b919050565b80358015158114611b6657600080fd5b600080600080600080600060e0888a031215611b9657600080fd5b873567ffffffffffffffff80821115611bae57600080fd5b611bba8b838c01611ac2565b9850611bc860208b01611b4f565b975060408a0135915080821115611bde57600080fd5b611bea8b838c01611ac2565b9650611bf860608b01611b4f565b955060808a0135915080821115611c0e57600080fd5b50611c1b8a828b01611ac2565b93505060a08801359150611c3160c08901611b6b565b905092959891949750929550565b60008060408385031215611c5257600080fd5b82359150602083013567ffffffffffffffff811115611c7057600080fd5b611c7c85828601611ac2565b9150509250929050565b60008060408385031215611c9957600080fd5b82359150611ca960208401611b6b565b90509250929050565b600080600060608486031215611cc757600080fd5b83359250611cd760208501611b4f565b9150604084013567ffffffffffffffff811115611cf357600080fd5b611cff86828701611ac2565b9150509250925092565b600060208284031215611d1b57600080fd5b5035919050565b6000815180845260005b81811015611d4857602081850181015186830182015201611d2c565b81811115611d5a576000602083870101525b50601f01601f19169290920160200192915050565b60006101208b8352806020840152611d898184018c611d22565b6001600160a01b038b811660408601528482036060860152909150611dae828b611d22565b908916608085015283810360a08501529050611dca8188611d22565b60c0840196909652505060e08101929092521515610100909101529695505050505050565b60008060408385031215611e0257600080fd5b50508035926020909101359150565b600080600080600060a08688031215611e2957600080fd5b85359450602086013567ffffffffffffffff80821115611e4857600080fd5b611e5489838a01611ac2565b95506040880135915080821115611e6a57600080fd5b611e7689838a01611ac2565b9450606088013593506080880135915080821115611e9357600080fd5b50611ea088828901611ac2565b9150509295509295909350565b85815260a060208201526000611ec660a0830187611d22565b8281036040840152611ed88187611d22565b90508460608401528281036080840152611ef28185611d22565b98975050505050505050565b600081518084526020808501945080840160005b83811015611f2e57815187529582019590820190600101611f12565b509495945050505050565b60006020808301818452808551808352604092508286019150828160051b87010184880160005b8381101561207457603f1989840301855281516101608151855288820151818a870152611f8f82870182611d22565b91505087820151611faa898701826001600160a01b03169052565b5060608083015186830382880152611fc28382611d22565b92505050608080830151611fe0828801826001600160a01b03169052565b505060a08083015186830382880152611ff98382611d22565b9250505060c080830151818701525060e0808301518187015250610100808301516120278288018215159052565b505061012080830151868303828801526120418382611efe565b9250505061014080830151925085820381870152506120608183611efe565b968901969450505090860190600101611f60565b509098975050505050505050565b60006020808301818452808551808352604092508286019150828160051b87010184880160005b8381101561207457603f19898403018552815160a08151855288820151818a8701526120d782870182611d22565b91505087820151858203898701526120ef8282611d22565b9150506060808301518187015250608080830151925085820381870152506121178183611d22565b9689019694505050908601906001016120a9565b60006020808301818452808551808352604092508286019150828160051b87010184880160005b8381101561207457888303603f19018552815180516001600160a01b031684528781015160608986018190529061218b82870182611d22565b92890151958901959095525094870194925090860190600101612152565b6001600160a01b03841681526060602082018190526000906121cd90830185611d22565b9050826040830152949350505050565b634e487b7160e01b600052601160045260246000fd5b600081600019048311821515161561220d5761220d6121dd565b500290565b60008261222f57634e487b7160e01b600052601260045260246000fd5b500490565b600060018201612246576122466121dd565b5060010190565b6020808252601a908201527f50726f6475637420494420646f6573206e6f742065786973742e000000000000604082015260600190565b600181811c9082168061229857607f821691505b6020821081036113ba57634e487b7160e01b600052602260045260246000fd5b634e487b7160e01b600052603260045260246000fdfea2646970667358221220f2daeeb942a1a83550a204b8bd2ff691b2657abd7e15c14121db0ea4d10fe89364736f6c634300080d0033",
  "immutableReferences": {},
  "source": "// Last modified by Matteo Griso on 08/08/2024\n\n// SPDX-License-Identifier: MIT\npragma solidity ^0.8.0;\n// import \"@openzeppelin/contracts/access/Ownable.sol\";\n\n\ncontract SupplyChainTracker /*is Ownable*/ {\n\n    address public owner;\n    uint256 public productCount;\n\n    mapping(uint256 => Product) public products;\n    mapping(uint256 => OwnershipEvent) public ownershipEvents;\n    mapping(uint256 => SensorData) public sensorData;\n\n    constructor() {\n        owner = msg.sender;\n        productCount = 0;\n    }\n\n/*    function transferContractOwnership(address newOwner) public onlyOwner {\n        owner = newOwner;\n    }*/\n\n    // This function allows me (the owner of the contract, to withdraw funds)\n/*    function withdrawFunds() public onlyOwner {\n        uint balance = address(this).balance;\n        payable(owner).transfer(balance);\n}*/\n\n    struct Product {\n        uint256 id;\n        string name;\n        address manufacturer;\n        string serialNumber;\n        address currentOwner;\n        string currentLocation;\n        uint256 timestamp;\n        uint256 price;\n        bool isForSale;\n        uint[] ownershipEventIds;\n        uint[] sensorEventIds;\n        // mapping(uint => SensorData) sensorData;\n    }\n\n    struct OwnershipEvent {\n        address newOwner;\n        string newLocation;\n        uint256 timestamp;\n    }\n\n    struct SensorData {\n        uint timestamp;\n        string paramName;\n        string paramValue_str;\n        uint paramValue_num;\n        string location;\n    }\n\n    function addProduct (\n        string memory _name,\n        address _manufacturer,\n        string memory _serialNumber,\n        address _initialOwner,\n        string memory _initialLocation,\n        uint256 _price,\n        bool _isForSale\n    ) public payable {\n        require(msg.sender == _manufacturer, \"Only manufacturer can add products\");\n        require(msg.value >= (_price * 10) / 100, \"Insufficient fee\");\n\n        products[productCount] = Product({\n            id: productCount,\n            name: _name,\n            manufacturer: _manufacturer,\n            serialNumber: _serialNumber,\n            currentOwner: _initialOwner,\n            currentLocation: _initialLocation,\n            timestamp: block.timestamp,\n            ownershipEventIds: new uint[](0),\n            sensorEventIds: new uint[](0),\n            price: _price,\n            isForSale: _isForSale\n        });\n\n        productCount++;\n    }\n\n  function updateLocation(uint256 _productId, string memory _newLocation) public {\n    require(_productId < productCount, \"Product ID does not exist.\"); \n    require(msg.sender == products[_productId].currentOwner, \"Only the current owner can update the location.\"); \n    products[_productId].currentLocation = _newLocation; \n  }\n\n  function updatePrice(uint256 _productId, uint256 _newPrice) public {\n    require(_productId < productCount, \"Product ID does not exist.\"); \n    require(msg.sender == products[_productId].currentOwner, \"Only the current owner can update the price.\"); \n    products[_productId].price = _newPrice;\n  }\n\n    function updateIsForSale(uint256 _productId, bool _isForSale) public {\n    require(_productId < productCount, \"Product ID does not exist.\"); \n    require(msg.sender == products[_productId].currentOwner, \"Only the current owner can update the isForSale flag.\"); \n    products[_productId].isForSale = _isForSale; \n  }\n\nfunction transferOwnership(uint256 _productId, address _newOwner, string memory _newLocation) public payable {\n    // 1. Check if the product exists\n    require(_productId < productCount, \"Product ID does not exist.\"); \n\n    // 2. Check if the sender is the current owner\n    require(msg.sender != products[_productId].currentOwner, \"Current owner can't buy a from product from himself\");\n\n    // 3. Check if the product is actually for sale \n    require(products[_productId].isForSale, \"This product is not currently for sale.\");\n\n    // 4. Check if the sent value meets or exceeds the product's price\n    require(msg.value >= products[_productId].price, \"Insufficient payment.\");\n\n    // Update product state (if all checks pass)\n    // products[_productId].price = msg.value;\n    products[_productId].currentOwner = _newOwner;\n    products[_productId].currentLocation = _newLocation;\n\n    // Transfer Ether to the previous owner\n    payable(products[_productId].currentOwner).transfer(msg.value); \n\n    // Log the ownership transfer event \n    uint eventId = generateEventId();\n    ownershipEvents[eventId] = OwnershipEvent(_newOwner, _newLocation, block.timestamp);\n    products[_productId].ownershipEventIds.push(eventId);\n}\n\n\n    // Funzione per generare un ID evento univoco\n    uint private eventIdCounter;\n    function generateEventId() private returns (uint) {\n        eventIdCounter++;\n        return eventIdCounter;\n    }\n\n    // Funzione per ottenere la storia degli eventi di un prodotto\n    function getOwnershipHistory(uint256 _productId) public view returns (OwnershipEvent[] memory) {\n        uint[] memory eventIds = products[_productId].ownershipEventIds;\n        OwnershipEvent[] memory history = new OwnershipEvent[](eventIds.length);\n\n        for (uint i = 0; i < eventIds.length; i++) {\n            history[i] = ownershipEvents[eventIds[i]];\n        }\n\n        return history;\n    }\n\n    // Funzione per ottenere l'elenco dei prodotti\n    function getProducts() public view returns (Product[] memory) {\n        Product[] memory history = new Product[](productCount);\n\n        for (uint i = 0; i < productCount; i++) {\n            history[i] = products[i];\n        }\n\n        return history;\n    }\n\n    // Funzione per registrare i dati dei sensori\n    function recordSensorData(uint _productId, string memory _pName, string memory _spValue, uint _snValue, string memory _location) public {\n        require(msg.sender == products[_productId].currentOwner, \"Only the current owner can record sensor data\");\n\n        uint eventId = generateEventId();\n        sensorData[eventId] = SensorData(block.timestamp, _pName, _spValue, _snValue, _location);\n        products[_productId].sensorEventIds.push(eventId);\n    }\n\n    // Funzione per ottenere i dati dei sensori di un prodotto\n    function getSensorData(uint _productId) public view returns (SensorData[] memory) {\n        uint[] memory eventIds = products[_productId].sensorEventIds;\n        SensorData[] memory data = new SensorData[](eventIds.length);\n\n        for (uint i = 0; i < eventIds.length; i++) {\n            uint index = eventIds[i];\n            data[i] = sensorData[index];\n        }\n\n        return data;\n    }\n}\n\n",
  "sourcePath": "/home/matteo/ChainSync/ChainSync/contracts/SupplyChainTracker.sol",
  "compiler": {
    "name": "solc",
    "version": "0.8.13+commit.abaa5c0e.Emscripten.clang"
  },
  "schemaVersion": "3.4.16",
  "updatedAt": "2024-12-08T10:53:29.025Z",
  "networkType": "ethereum",
  "devdoc": {
    "kind": "dev",
    "methods": {},
    "version": 1
  },
  "userdoc": {
    "kind": "user",
    "methods": {},
    "version": 1
  }
}