{
  "contractName": "SupplyChainTracker",
  "abi": [
    {
      "inputs": [],
      "stateMutability": "nonpayable",
      "type": "constructor"
    },
    {
      "inputs": [
        {
          "internalType": "uint256",
          "name": "",
          "type": "uint256"
        }
      ],
      "name": "ownershipEvents",
      "outputs": [
        {
          "internalType": "address",
          "name": "newOwner",
          "type": "address"
        },
        {
          "internalType": "string",
          "name": "newLocation",
          "type": "string"
        },
        {
          "internalType": "uint256",
          "name": "timestamp",
          "type": "uint256"
        }
      ],
      "stateMutability": "view",
      "type": "function",
      "constant": true
    },
    {
      "inputs": [],
      "name": "productCount",
      "outputs": [
        {
          "internalType": "uint256",
          "name": "",
          "type": "uint256"
        }
      ],
      "stateMutability": "view",
      "type": "function",
      "constant": true
    },
    {
      "inputs": [
        {
          "internalType": "uint256",
          "name": "",
          "type": "uint256"
        }
      ],
      "name": "products",
      "outputs": [
        {
          "internalType": "uint256",
          "name": "id",
          "type": "uint256"
        },
        {
          "internalType": "string",
          "name": "name",
          "type": "string"
        },
        {
          "internalType": "address",
          "name": "manufacturer",
          "type": "address"
        },
        {
          "internalType": "string",
          "name": "serialNumber",
          "type": "string"
        },
        {
          "internalType": "address",
          "name": "currentOwner",
          "type": "address"
        },
        {
          "internalType": "string",
          "name": "currentLocation",
          "type": "string"
        },
        {
          "internalType": "uint256",
          "name": "timestamp",
          "type": "uint256"
        },
        {
          "internalType": "uint256",
          "name": "price",
          "type": "uint256"
        },
        {
          "internalType": "bool",
          "name": "isForSale",
          "type": "bool"
        }
      ],
      "stateMutability": "view",
      "type": "function",
      "constant": true
    },
    {
      "inputs": [
        {
          "internalType": "uint256",
          "name": "",
          "type": "uint256"
        }
      ],
      "name": "sensorData",
      "outputs": [
        {
          "internalType": "uint256",
          "name": "timestamp",
          "type": "uint256"
        },
        {
          "internalType": "uint256",
          "name": "temperature",
          "type": "uint256"
        },
        {
          "internalType": "string",
          "name": "location",
          "type": "string"
        }
      ],
      "stateMutability": "view",
      "type": "function",
      "constant": true
    },
    {
      "inputs": [
        {
          "internalType": "string",
          "name": "_name",
          "type": "string"
        },
        {
          "internalType": "address",
          "name": "_manufacturer",
          "type": "address"
        },
        {
          "internalType": "string",
          "name": "_serialNumber",
          "type": "string"
        },
        {
          "internalType": "address",
          "name": "_initialOwner",
          "type": "address"
        },
        {
          "internalType": "string",
          "name": "_initialLocation",
          "type": "string"
        },
        {
          "internalType": "uint256",
          "name": "_price",
          "type": "uint256"
        },
        {
          "internalType": "bool",
          "name": "_isForSale",
          "type": "bool"
        }
      ],
      "name": "addProduct",
      "outputs": [],
      "stateMutability": "nonpayable",
      "type": "function"
    },
    {
      "inputs": [
        {
          "internalType": "uint256",
          "name": "_productId",
          "type": "uint256"
        },
        {
          "internalType": "address",
          "name": "_newOwner",
          "type": "address"
        },
        {
          "internalType": "string",
          "name": "_newLocation",
          "type": "string"
        }
      ],
      "name": "transferOwnership",
      "outputs": [],
      "stateMutability": "payable",
      "type": "function",
      "payable": true
    },
    {
      "inputs": [
        {
          "internalType": "uint256",
          "name": "_productId",
          "type": "uint256"
        }
      ],
      "name": "getOwnershipHistory",
      "outputs": [
        {
          "components": [
            {
              "internalType": "address",
              "name": "newOwner",
              "type": "address"
            },
            {
              "internalType": "string",
              "name": "newLocation",
              "type": "string"
            },
            {
              "internalType": "uint256",
              "name": "timestamp",
              "type": "uint256"
            }
          ],
          "internalType": "struct SupplyChainTracker.OwnershipEvent[]",
          "name": "",
          "type": "tuple[]"
        }
      ],
      "stateMutability": "view",
      "type": "function",
      "constant": true
    },
    {
      "inputs": [],
      "name": "getProducts",
      "outputs": [
        {
          "components": [
            {
              "internalType": "uint256",
              "name": "id",
              "type": "uint256"
            },
            {
              "internalType": "string",
              "name": "name",
              "type": "string"
            },
            {
              "internalType": "address",
              "name": "manufacturer",
              "type": "address"
            },
            {
              "internalType": "string",
              "name": "serialNumber",
              "type": "string"
            },
            {
              "internalType": "address",
              "name": "currentOwner",
              "type": "address"
            },
            {
              "internalType": "string",
              "name": "currentLocation",
              "type": "string"
            },
            {
              "internalType": "uint256",
              "name": "timestamp",
              "type": "uint256"
            },
            {
              "internalType": "uint256",
              "name": "price",
              "type": "uint256"
            },
            {
              "internalType": "bool",
              "name": "isForSale",
              "type": "bool"
            },
            {
              "internalType": "uint256[]",
              "name": "ownershipEventIds",
              "type": "uint256[]"
            },
            {
              "internalType": "uint256[]",
              "name": "sensorEventIds",
              "type": "uint256[]"
            }
          ],
          "internalType": "struct SupplyChainTracker.Product[]",
          "name": "",
          "type": "tuple[]"
        }
      ],
      "stateMutability": "view",
      "type": "function",
      "constant": true
    },
    {
      "inputs": [
        {
          "internalType": "uint256",
          "name": "_productId",
          "type": "uint256"
        },
        {
          "internalType": "uint256",
          "name": "_temperature",
          "type": "uint256"
        },
        {
          "internalType": "string",
          "name": "_location",
          "type": "string"
        }
      ],
      "name": "recordSensorData",
      "outputs": [],
      "stateMutability": "nonpayable",
      "type": "function"
    },
    {
      "inputs": [
        {
          "internalType": "uint256",
          "name": "_productId",
          "type": "uint256"
        }
      ],
      "name": "getSensorData",
      "outputs": [
        {
          "components": [
            {
              "internalType": "uint256",
              "name": "timestamp",
              "type": "uint256"
            },
            {
              "internalType": "uint256",
              "name": "temperature",
              "type": "uint256"
            },
            {
              "internalType": "string",
              "name": "location",
              "type": "string"
            }
          ],
          "internalType": "struct SupplyChainTracker.SensorData[]",
          "name": "",
          "type": "tuple[]"
        }
      ],
      "stateMutability": "view",
      "type": "function",
      "constant": true
    }
  ],
  "bytecode": "0x608060405234801561001057600080fd5b5060008055611a0e806100246000396000f3fe6080604052600436106100915760003560e01c8063c29b2f2011610059578063c29b2f2014610158578063e0f6ef871461017a578063ed044aa31461019e578063f1dbaccb146101cb578063fe04d06f146101f857600080fd5b806315bce7f61461009657806371625641146100b85780637acc0b20146100cb578063ab562a1d14610109578063baabdc2214610138575b600080fd5b3480156100a257600080fd5b506100b66100b1366004611454565b610227565b005b6100b66100c6366004611521565b610496565b3480156100d757600080fd5b506100eb6100e6366004611578565b610642565b604051610100999897969594939291906115de565b60405180910390f35b34801561011557600080fd5b50610129610124366004611578565b610843565b6040516101009392919061165e565b34801561014457600080fd5b506100b6610153366004611686565b6108ee565b34801561016457600080fd5b5061016d6109f0565b60405161010091906116fb565b34801561018657600080fd5b5061019060005481565b604051908152602001610100565b3480156101aa57600080fd5b506101be6101b9366004611578565b610ddb565b6040516101009190611844565b3480156101d757600080fd5b506101eb6101e6366004611578565b610fd5565b60405161010091906118b5565b34801561020457600080fd5b50610218610213366004611578565b6111ef565b60405161010093929190611933565b336001600160a01b0387161461028f5760405162461bcd60e51b815260206004820152602260248201527f4f6e6c79206d616e7566616374757265722063616e206164642070726f647563604482015261747360f01b60648201526084015b60405180910390fd5b6040518061016001604052806000548152602001888152602001876001600160a01b03168152602001868152602001856001600160a01b031681526020018481526020014281526020018381526020018215158152602001600067ffffffffffffffff81111561030157610301611395565b60405190808252806020026020018201604052801561032a578160200160208202803683370190505b508152602001600060405190808252806020026020018201604052801561035b578160200160208202803683370190505b50905260008054815260016020818152604090922083518155838301518051919361038b938501929101906112c2565b5060408201516002820180546001600160a01b0319166001600160a01b03909216919091179055606082015180516103cd9160038401916020909101906112c2565b5060808201516004820180546001600160a01b0319166001600160a01b0390921691909117905560a0820151805161040f9160058401916020909101906112c2565b5060c0820151600682015560e0820151600782015561010082015160088201805460ff19169115159190911790556101208201518051610459916009840191602090910190611346565b50610140820151805161047691600a840191602090910190611346565b50506000805491508061048883611967565b919050555050505050505050565b60005483106104e75760405162461bcd60e51b815260206004820152601a60248201527f50726f6475637420494420646f6573206e6f742065786973742e0000000000006044820152606401610286565b60008381526001602052604090206008015460ff166105585760405162461bcd60e51b815260206004820152602760248201527f546869732070726f64756374206973206e6f742063757272656e746c7920666f604482015266391039b0b6329760c91b6064820152608401610286565b6000838152600160205260409020600701543410156105b15760405162461bcd60e51b815260206004820152601560248201527424b739bab33334b1b4b2b73a103830bcb6b2b73a1760591b6044820152606401610286565b60008381526001602090815260409091206004810180546001600160a01b0319166001600160a01b03861617905582516105f3926005909201918401906112c2565b506000838152600160205260408082206004015490516001600160a01b03909116913480156108fc02929091818181858888f1935050505015801561063c573d6000803e3d6000fd5b50505050565b6001602081905260009182526040909120805491810180546106639061198e565b80601f016020809104026020016040519081016040528092919081815260200182805461068f9061198e565b80156106dc5780601f106106b1576101008083540402835291602001916106dc565b820191906000526020600020905b8154815290600101906020018083116106bf57829003601f168201915b505050600284015460038501805494956001600160a01b039092169491935091506107069061198e565b80601f01602080910402602001604051908101604052809291908181526020018280546107329061198e565b801561077f5780601f106107545761010080835404028352916020019161077f565b820191906000526020600020905b81548152906001019060200180831161076257829003601f168201915b505050600484015460058501805494956001600160a01b039092169491935091506107a99061198e565b80601f01602080910402602001604051908101604052809291908181526020018280546107d59061198e565b80156108225780601f106107f757610100808354040283529160200191610822565b820191906000526020600020905b81548152906001019060200180831161080557829003601f168201915b50505050600683015460078401546008909401549293909290915060ff1689565b6003602052600090815260409020805460018201546002830180549293919261086b9061198e565b80601f01602080910402602001604051908101604052809291908181526020018280546108979061198e565b80156108e45780601f106108b9576101008083540402835291602001916108e4565b820191906000526020600020905b8154815290600101906020018083116108c757829003601f168201915b5050505050905083565b6000838152600160205260409020600401546001600160a01b0316331461096d5760405162461bcd60e51b815260206004820152602d60248201527f4f6e6c79207468652063757272656e74206f776e65722063616e207265636f7260448201526c642073656e736f72206461746160981b6064820152608401610286565b60006109776112a4565b6040805160608101825242815260208082018781528284018781526000868152600384529490942083518155905160018201559251805194955091936109c392600285019201906112c2565b50505060009384526001602081815260408620600a01805492830181558652909420909301929092555050565b60606000805467ffffffffffffffff811115610a0e57610a0e611395565b604051908082528060200260200182016040528015610ab057816020015b610a9d604051806101600160405280600081526020016060815260200160006001600160a01b031681526020016060815260200160006001600160a01b0316815260200160608152602001600081526020016000815260200160001515815260200160608152602001606081525090565b815260200190600190039081610a2c5790505b50905060005b600054811015610dd5576000818152600160208181526040928390208351610160810190945280548452918201805491840191610af29061198e565b80601f0160208091040260200160405190810160405280929190818152602001828054610b1e9061198e565b8015610b6b5780601f10610b4057610100808354040283529160200191610b6b565b820191906000526020600020905b815481529060010190602001808311610b4e57829003601f168201915b505050918352505060028201546001600160a01b03166020820152600382018054604090920191610b9b9061198e565b80601f0160208091040260200160405190810160405280929190818152602001828054610bc79061198e565b8015610c145780601f10610be957610100808354040283529160200191610c14565b820191906000526020600020905b815481529060010190602001808311610bf757829003601f168201915b505050918352505060048201546001600160a01b03166020820152600582018054604090920191610c449061198e565b80601f0160208091040260200160405190810160405280929190818152602001828054610c709061198e565b8015610cbd5780601f10610c9257610100808354040283529160200191610cbd565b820191906000526020600020905b815481529060010190602001808311610ca057829003601f168201915b5050505050815260200160068201548152602001600782015481526020016008820160009054906101000a900460ff1615151515815260200160098201805480602002602001604051908101604052809291908181526020018280548015610d4457602002820191906000526020600020905b815481526020019060010190808311610d30575b50505050508152602001600a8201805480602002602001604051908101604052809291908181526020018280548015610d9c57602002820191906000526020600020905b815481526020019060010190808311610d88575b505050505081525050828281518110610db757610db76119c2565b60200260200101819052508080610dcd90611967565b915050610ab6565b50919050565b6000818152600160209081526040808320600a01805482518185028101850190935280835260609493830182828015610e3357602002820191906000526020600020905b815481526020019060010190808311610e1f575b505050505090506000815167ffffffffffffffff811115610e5657610e56611395565b604051908082528060200260200182016040528015610eab57816020015b610e9860405180606001604052806000815260200160008152602001606081525090565b815260200190600190039081610e745790505b50905060005b8251811015610fcd576000838281518110610ece57610ece6119c2565b60200260200101519050600360008281526020019081526020016000206040518060600160405290816000820154815260200160018201548152602001600282018054610f1a9061198e565b80601f0160208091040260200160405190810160405280929190818152602001828054610f469061198e565b8015610f935780601f10610f6857610100808354040283529160200191610f93565b820191906000526020600020905b815481529060010190602001808311610f7657829003601f168201915b505050505081525050838381518110610fae57610fae6119c2565b6020026020010181905250508080610fc590611967565b915050610eb1565b509392505050565b600081815260016020908152604080832060090180548251818502810185019093528083526060949383018282801561102d57602002820191906000526020600020905b815481526020019060010190808311611019575b505050505090506000815167ffffffffffffffff81111561105057611050611395565b6040519080825280602002602001820160405280156110ae57816020015b61109b604051806060016040528060006001600160a01b0316815260200160608152602001600081525090565b81526020019060019003908161106e5790505b50905060005b8251811015610fcd57600260008483815181106110d3576110d36119c2565b602002602001015181526020019081526020016000206040518060600160405290816000820160009054906101000a90046001600160a01b03166001600160a01b03166001600160a01b031681526020016001820180546111339061198e565b80601f016020809104026020016040519081016040528092919081815260200182805461115f9061198e565b80156111ac5780601f10611181576101008083540402835291602001916111ac565b820191906000526020600020905b81548152906001019060200180831161118f57829003601f168201915b505050505081526020016002820154815250508282815181106111d1576111d16119c2565b602002602001018190525080806111e790611967565b9150506110b4565b600260205260009081526040902080546001820180546001600160a01b03909216929161121b9061198e565b80601f01602080910402602001604051908101604052809291908181526020018280546112479061198e565b80156112945780601f1061126957610100808354040283529160200191611294565b820191906000526020600020905b81548152906001019060200180831161127757829003601f168201915b5050505050908060020154905083565b60048054600091826112b583611967565b9190505550600454905090565b8280546112ce9061198e565b90600052602060002090601f0160209004810192826112f05760008555611336565b82601f1061130957805160ff1916838001178555611336565b82800160010185558215611336579182015b8281111561133657825182559160200191906001019061131b565b50611342929150611380565b5090565b828054828255906000526020600020908101928215611336579160200282018281111561133657825182559160200191906001019061131b565b5b808211156113425760008155600101611381565b634e487b7160e01b600052604160045260246000fd5b600082601f8301126113bc57600080fd5b813567ffffffffffffffff808211156113d7576113d7611395565b604051601f8301601f19908116603f011681019082821181831017156113ff576113ff611395565b8160405283815286602085880101111561141857600080fd5b836020870160208301376000602085830101528094505050505092915050565b80356001600160a01b038116811461144f57600080fd5b919050565b600080600080600080600060e0888a03121561146f57600080fd5b873567ffffffffffffffff8082111561148757600080fd5b6114938b838c016113ab565b98506114a160208b01611438565b975060408a01359150808211156114b757600080fd5b6114c38b838c016113ab565b96506114d160608b01611438565b955060808a01359150808211156114e757600080fd5b506114f48a828b016113ab565b93505060a0880135915060c0880135801515811461151157600080fd5b8091505092959891949750929550565b60008060006060848603121561153657600080fd5b8335925061154660208501611438565b9150604084013567ffffffffffffffff81111561156257600080fd5b61156e868287016113ab565b9150509250925092565b60006020828403121561158a57600080fd5b5035919050565b6000815180845260005b818110156115b75760208185018101518683018201520161159b565b818111156115c9576000602083870101525b50601f01601f19169290920160200192915050565b60006101208b83528060208401526115f88184018c611591565b6001600160a01b038b81166040860152848203606086015290915061161d828b611591565b908916608085015283810360a085015290506116398188611591565b60c0840196909652505060e08101929092521515610100909101529695505050505050565b83815282602082015260606040820152600061167d6060830184611591565b95945050505050565b60008060006060848603121561169b57600080fd5b8335925060208401359150604084013567ffffffffffffffff81111561156257600080fd5b600081518084526020808501945080840160005b838110156116f0578151875295820195908201906001016116d4565b509495945050505050565b60006020808301818452808551808352604092508286019150828160051b87010184880160005b8381101561183657603f1989840301855281516101608151855288820151818a87015261175182870182611591565b9150508782015161176c898701826001600160a01b03169052565b50606080830151868303828801526117848382611591565b925050506080808301516117a2828801826001600160a01b03169052565b505060a080830151868303828801526117bb8382611591565b9250505060c080830151818701525060e0808301518187015250610100808301516117e98288018215159052565b5050610120808301518683038288015261180383826116c0565b92505050610140808301519250858203818701525061182281836116c0565b968901969450505090860190600101611722565b509098975050505050505050565b60006020808301818452808551808352604092508286019150828160051b87010184880160005b8381101561183657888303603f19018552815180518452878101518885015286015160608785018190526118a181860183611591565b96890196945050509086019060010161186b565b60006020808301818452808551808352604092508286019150828160051b87010184880160005b8381101561183657888303603f19018552815180516001600160a01b031684528781015160608986018190529061191582870182611591565b928901519589019590955250948701949250908601906001016118dc565b6001600160a01b038416815260606020820181905260009061195790830185611591565b9050826040830152949350505050565b60006001820161198757634e487b7160e01b600052601160045260246000fd5b5060010190565b600181811c908216806119a257607f821691505b602082108103610dd557634e487b7160e01b600052602260045260246000fd5b634e487b7160e01b600052603260045260246000fdfea2646970667358221220f1e7870058fd5fcaea8ef3f73aa7c8485c3aa03925c4a776bf2665a9193ca5cb64736f6c634300080d0033",
  "immutableReferences": {},
  "source": "// Last modified by Matteo Griso on 08/08/2024\n\n// SPDX-License-Identifier: MIT\npragma solidity ^0.8.0;\n\ncontract SupplyChainTracker {\n    uint256 public productCount;\n\n    mapping(uint256 => Product) public products;\n    mapping(uint256 => OwnershipEvent) public ownershipEvents;\n    mapping(uint256 => SensorData) public sensorData;\n\n    constructor() {\n        productCount = 0;\n    }\n\n    struct Product {\n        uint256 id;\n        string name;\n        address manufacturer;\n        string serialNumber;\n        address currentOwner;\n        string currentLocation;\n        uint256 timestamp;\n        uint256 price;\n        bool isForSale;\n        uint[] ownershipEventIds;\n        uint[] sensorEventIds;\n    }\n\n    struct OwnershipEvent {\n        address newOwner;\n        string newLocation;\n        uint256 timestamp;\n    }\n\n    struct SensorData {\n        uint timestamp;\n        uint temperature; // Esempio di dato sensoriale\n        string location; // Esempio di dato sensoriale\n    }\n\n    function addProduct(\n        string memory _name,\n        address _manufacturer,\n        string memory _serialNumber,\n        address _initialOwner,\n        string memory _initialLocation,\n        uint256 _price,\n        bool _isForSale\n    ) public {\n        require(msg.sender == _manufacturer, \"Only manufacturer can add products\");\n\n        products[productCount] = Product({\n            id: productCount,\n            name: _name,\n            manufacturer: _manufacturer,\n            serialNumber: _serialNumber,\n            currentOwner: _initialOwner,\n            currentLocation: _initialLocation,\n            timestamp: block.timestamp,\n            ownershipEventIds: new uint[](0),\n            sensorEventIds: new uint[](0),\n            price: _price,\n            isForSale: _isForSale\n        });\n\n        productCount++;\n    }\n\n\nfunction transferOwnership(uint256 _productId, address _newOwner, string memory _newLocation) public payable {\n    // 1. Check if the product exists\n    require(_productId < productCount, \"Product ID does not exist.\"); \n\n    // 2. Check if the sender is the current owner\n    // require(msg.sender == products[_productId].currentOwner, \"Only the current owner can transfer ownership.\");\n\n    // 3. Check if the product is actually for sale \n    require(products[_productId].isForSale, \"This product is not currently for sale.\");\n\n    // 4. Check if the sent value meets or exceeds the product's price\n    require(msg.value >= products[_productId].price, \"Insufficient payment.\");\n\n    // Update product state (if all checks pass)\n    // products[_productId].price = msg.value;\n    products[_productId].currentOwner = _newOwner;\n    products[_productId].currentLocation = _newLocation;\n\n    // Transfer Ether to the previous owner\n    payable(products[_productId].currentOwner).transfer(msg.value); \n\n    // Log the ownership transfer event \n    // uint eventId = generateEventId();\n    // ownershipEvents[eventId] = OwnershipEvent(_newOwner, _newLocation, block.timestamp);\n    // products[_productId].ownershipEventIds.push(eventId);\n}\n\n\n    // Funzione per generare un ID evento univoco\n    uint private eventIdCounter;\n    function generateEventId() private returns (uint) {\n        eventIdCounter++;\n        return eventIdCounter;\n    }\n\n    // Funzione per ottenere la storia degli eventi di un prodotto\n    function getOwnershipHistory(uint256 _productId) public view returns (OwnershipEvent[] memory) {\n        uint[] memory eventIds = products[_productId].ownershipEventIds;\n        OwnershipEvent[] memory history = new OwnershipEvent[](eventIds.length);\n\n        for (uint i = 0; i < eventIds.length; i++) {\n            history[i] = ownershipEvents[eventIds[i]];\n        }\n\n        return history;\n    }\n\n    // Funzione per ottenere l'elenco dei prodotti\n    function getProducts() public view returns (Product[] memory) {\n        Product[] memory history = new Product[](productCount);\n\n        for (uint i = 0; i < productCount; i++) {\n            history[i] = products[i];\n        }\n\n        return history;\n    }\n\n    // Funzione per registrare i dati dei sensori\n    function recordSensorData(uint _productId, uint _temperature, string memory _location) public {\n        require(msg.sender == products[_productId].currentOwner, \"Only the current owner can record sensor data\");\n\n        uint eventId = generateEventId();\n        sensorData[eventId] = SensorData(block.timestamp, _temperature, _location);\n        products[_productId].sensorEventIds.push(eventId);\n    }\n\n    // Funzione per ottenere i dati dei sensori di un prodotto\n    function getSensorData(uint _productId) public view returns (SensorData[] memory) {\n        uint[] memory eventIds = products[_productId].sensorEventIds;\n        SensorData[] memory data = new SensorData[](eventIds.length);\n\n        for (uint i = 0; i < eventIds.length; i++) {\n            uint index = eventIds[i];\n            data[i] = sensorData[index];\n        }\n\n        return data;\n    }\n}\n\n",
  "sourcePath": "/home/matteo/ChainSync/ChainSync/contracts/SupplyChainTracker.sol",
  "compiler": {
    "name": "solc",
    "version": "0.8.13+commit.abaa5c0e.Emscripten.clang"
  },
  "schemaVersion": "3.4.16",
  "updatedAt": "2024-10-08T20:13:43.412Z",
  "networkType": "ethereum",
  "devdoc": {
    "kind": "dev",
    "methods": {},
    "version": 1
  },
  "userdoc": {
    "kind": "user",
    "methods": {},
    "version": 1
  }
}