{
  "contractName": "SupplyChainTracker",
  "abi": [
    {
      "inputs": [],
      "stateMutability": "nonpayable",
      "type": "constructor"
    },
    {
      "inputs": [
        {
          "internalType": "uint256",
          "name": "",
          "type": "uint256"
        }
      ],
      "name": "ownershipEvents",
      "outputs": [
        {
          "internalType": "address",
          "name": "newOwner",
          "type": "address"
        },
        {
          "internalType": "string",
          "name": "newLocation",
          "type": "string"
        },
        {
          "internalType": "uint256",
          "name": "timestamp",
          "type": "uint256"
        }
      ],
      "stateMutability": "view",
      "type": "function",
      "constant": true
    },
    {
      "inputs": [],
      "name": "productCount",
      "outputs": [
        {
          "internalType": "uint256",
          "name": "",
          "type": "uint256"
        }
      ],
      "stateMutability": "view",
      "type": "function",
      "constant": true
    },
    {
      "inputs": [
        {
          "internalType": "uint256",
          "name": "",
          "type": "uint256"
        }
      ],
      "name": "products",
      "outputs": [
        {
          "internalType": "uint256",
          "name": "id",
          "type": "uint256"
        },
        {
          "internalType": "string",
          "name": "name",
          "type": "string"
        },
        {
          "internalType": "address",
          "name": "manufacturer",
          "type": "address"
        },
        {
          "internalType": "string",
          "name": "serialNumber",
          "type": "string"
        },
        {
          "internalType": "address",
          "name": "currentOwner",
          "type": "address"
        },
        {
          "internalType": "string",
          "name": "currentLocation",
          "type": "string"
        },
        {
          "internalType": "uint256",
          "name": "timestamp",
          "type": "uint256"
        },
        {
          "internalType": "uint256",
          "name": "price",
          "type": "uint256"
        },
        {
          "internalType": "bool",
          "name": "isForSale",
          "type": "bool"
        }
      ],
      "stateMutability": "view",
      "type": "function",
      "constant": true
    },
    {
      "inputs": [
        {
          "internalType": "uint256",
          "name": "",
          "type": "uint256"
        }
      ],
      "name": "sensorData",
      "outputs": [
        {
          "internalType": "uint256",
          "name": "timestamp",
          "type": "uint256"
        },
        {
          "internalType": "uint256",
          "name": "temperature",
          "type": "uint256"
        },
        {
          "internalType": "string",
          "name": "location",
          "type": "string"
        }
      ],
      "stateMutability": "view",
      "type": "function",
      "constant": true
    },
    {
      "inputs": [
        {
          "internalType": "string",
          "name": "_name",
          "type": "string"
        },
        {
          "internalType": "address",
          "name": "_manufacturer",
          "type": "address"
        },
        {
          "internalType": "string",
          "name": "_serialNumber",
          "type": "string"
        },
        {
          "internalType": "address",
          "name": "_initialOwner",
          "type": "address"
        },
        {
          "internalType": "string",
          "name": "_initialLocation",
          "type": "string"
        },
        {
          "internalType": "uint256",
          "name": "_price",
          "type": "uint256"
        },
        {
          "internalType": "bool",
          "name": "_isForSale",
          "type": "bool"
        }
      ],
      "name": "addProduct",
      "outputs": [],
      "stateMutability": "nonpayable",
      "type": "function"
    },
    {
      "inputs": [
        {
          "internalType": "uint256",
          "name": "_productId",
          "type": "uint256"
        }
      ],
      "name": "getProductPrice",
      "outputs": [
        {
          "internalType": "uint256",
          "name": "",
          "type": "uint256"
        }
      ],
      "stateMutability": "view",
      "type": "function",
      "constant": true
    },
    {
      "inputs": [
        {
          "internalType": "uint256",
          "name": "_productId",
          "type": "uint256"
        },
        {
          "internalType": "uint256",
          "name": "_newPrice",
          "type": "uint256"
        }
      ],
      "name": "updateProductPrice",
      "outputs": [],
      "stateMutability": "nonpayable",
      "type": "function"
    },
    {
      "inputs": [
        {
          "internalType": "uint256",
          "name": "_productId",
          "type": "uint256"
        },
        {
          "internalType": "address",
          "name": "_newOwner",
          "type": "address"
        },
        {
          "internalType": "string",
          "name": "_newLocation",
          "type": "string"
        },
        {
          "internalType": "uint256",
          "name": "_transferFee",
          "type": "uint256"
        }
      ],
      "name": "transferOwnership",
      "outputs": [],
      "stateMutability": "payable",
      "type": "function",
      "payable": true
    },
    {
      "inputs": [
        {
          "internalType": "uint256",
          "name": "_productId",
          "type": "uint256"
        }
      ],
      "name": "getOwnershipHistory",
      "outputs": [
        {
          "components": [
            {
              "internalType": "address",
              "name": "newOwner",
              "type": "address"
            },
            {
              "internalType": "string",
              "name": "newLocation",
              "type": "string"
            },
            {
              "internalType": "uint256",
              "name": "timestamp",
              "type": "uint256"
            }
          ],
          "internalType": "struct SupplyChainTracker.OwnershipEvent[]",
          "name": "",
          "type": "tuple[]"
        }
      ],
      "stateMutability": "view",
      "type": "function",
      "constant": true
    },
    {
      "inputs": [],
      "name": "getProducts",
      "outputs": [
        {
          "components": [
            {
              "internalType": "uint256",
              "name": "id",
              "type": "uint256"
            },
            {
              "internalType": "string",
              "name": "name",
              "type": "string"
            },
            {
              "internalType": "address",
              "name": "manufacturer",
              "type": "address"
            },
            {
              "internalType": "string",
              "name": "serialNumber",
              "type": "string"
            },
            {
              "internalType": "address",
              "name": "currentOwner",
              "type": "address"
            },
            {
              "internalType": "string",
              "name": "currentLocation",
              "type": "string"
            },
            {
              "internalType": "uint256",
              "name": "timestamp",
              "type": "uint256"
            },
            {
              "internalType": "uint256[]",
              "name": "ownershipEventIds",
              "type": "uint256[]"
            },
            {
              "internalType": "uint256[]",
              "name": "sensorEventIds",
              "type": "uint256[]"
            },
            {
              "internalType": "uint256",
              "name": "price",
              "type": "uint256"
            },
            {
              "internalType": "bool",
              "name": "isForSale",
              "type": "bool"
            }
          ],
          "internalType": "struct SupplyChainTracker.Product[]",
          "name": "",
          "type": "tuple[]"
        }
      ],
      "stateMutability": "view",
      "type": "function",
      "constant": true
    },
    {
      "inputs": [
        {
          "internalType": "uint256",
          "name": "_productId",
          "type": "uint256"
        },
        {
          "internalType": "uint256",
          "name": "_temperature",
          "type": "uint256"
        },
        {
          "internalType": "string",
          "name": "_location",
          "type": "string"
        }
      ],
      "name": "recordSensorData",
      "outputs": [],
      "stateMutability": "nonpayable",
      "type": "function"
    },
    {
      "inputs": [
        {
          "internalType": "uint256",
          "name": "_productId",
          "type": "uint256"
        }
      ],
      "name": "getSensorData",
      "outputs": [
        {
          "components": [
            {
              "internalType": "uint256",
              "name": "timestamp",
              "type": "uint256"
            },
            {
              "internalType": "uint256",
              "name": "temperature",
              "type": "uint256"
            },
            {
              "internalType": "string",
              "name": "location",
              "type": "string"
            }
          ],
          "internalType": "struct SupplyChainTracker.SensorData[]",
          "name": "",
          "type": "tuple[]"
        }
      ],
      "stateMutability": "view",
      "type": "function",
      "constant": true
    },
    {
      "inputs": [
        {
          "internalType": "uint256",
          "name": "_productId",
          "type": "uint256"
        }
      ],
      "name": "setProductForSale",
      "outputs": [],
      "stateMutability": "nonpayable",
      "type": "function"
    },
    {
      "inputs": [
        {
          "internalType": "uint256",
          "name": "_productId",
          "type": "uint256"
        }
      ],
      "name": "buyProduct",
      "outputs": [],
      "stateMutability": "payable",
      "type": "function",
      "payable": true
    }
  ],
  "bytecode": "0x608060405234801561001057600080fd5b5060008055611f38806100246000396000f3fe6080604052600436106100dd5760003560e01c8063baabdc221161007f578063e7bf7dfc11610059578063e7bf7dfc1461023d578063ed044aa31461026d578063f1dbaccb1461029a578063fe04d06f146102c757600080fd5b8063baabdc22146101d7578063c29b2f20146101f7578063e0f6ef871461021957600080fd5b80637acc0b20116100bb5780637acc0b20146101375780638642269e146101755780639c3bddb214610188578063ab562a1d146101a857600080fd5b806315bce7f6146100e25780636061e183146101045780636a704a5914610124575b600080fd5b3480156100ee57600080fd5b506101026100fd36600461193d565b6102f6565b005b34801561011057600080fd5b5061010261011f366004611a0a565b610565565b610102610132366004611a23565b610601565b34801561014357600080fd5b50610157610152366004611a0a565b610856565b60405161016c99989796959493929190611acf565b60405180910390f35b610102610183366004611a0a565b610a57565b34801561019457600080fd5b506101026101a3366004611b4f565b610ca3565b3480156101b457600080fd5b506101c86101c3366004611a0a565b610d35565b60405161016c93929190611b71565b3480156101e357600080fd5b506101026101f2366004611b99565b610de0565b34801561020357600080fd5b5061020c610ee2565b60405161016c9190611c24565b34801561022557600080fd5b5061022f60005481565b60405190815260200161016c565b34801561024957600080fd5b5061022f610258366004611a0a565b60009081526001602052604090206009015490565b34801561027957600080fd5b5061028d610288366004611a0a565b6112c4565b60405161016c9190611d6e565b3480156102a657600080fd5b506102ba6102b5366004611a0a565b6114be565b60405161016c9190611ddf565b3480156102d357600080fd5b506102e76102e2366004611a0a565b6116d8565b60405161016c93929190611e5d565b336001600160a01b0387161461035e5760405162461bcd60e51b815260206004820152602260248201527f4f6e6c79206d616e7566616374757265722063616e206164642070726f647563604482015261747360f01b60648201526084015b60405180910390fd5b6040518061016001604052806000548152602001888152602001876001600160a01b03168152602001868152602001856001600160a01b03168152602001848152602001428152602001600067ffffffffffffffff8111156103c2576103c261187e565b6040519080825280602002602001820160405280156103eb578160200160208202803683370190505b508152602001600060405190808252806020026020018201604052801561041c578160200160208202803683370190505b5081526020808201859052831515604092830152600080548152600180835292902083518155838201518051919361045a93908501929101906117ab565b5060408201516002820180546001600160a01b0319166001600160a01b039092169190911790556060820151805161049c9160038401916020909101906117ab565b5060808201516004820180546001600160a01b0319166001600160a01b0390921691909117905560a082015180516104de9160058401916020909101906117ab565b5060c0820151600682015560e0820151805161050491600784019160209091019061182f565b50610100820151805161052191600884019160209091019061182f565b50610120820151600982015561014090910151600a909101805460ff191691151591909117905560008054908061055783611e91565b919050555050505050505050565b6000818152600160205260409020600401546001600160a01b031633146105e05760405162461bcd60e51b815260206004820152602960248201527f4f6e6c7920746865206f776e65722063616e2073657420612070726f6475637460448201526820666f722073616c6560b81b6064820152608401610355565b6000908152600160208190526040909120600a01805460ff19169091179055565b6000848152600160205260409020600401546001600160a01b031633146106805760405162461bcd60e51b815260206004820152602d60248201527f4f6e6c79207468652063757272656e74206f776e65722063616e207472616e7360448201526c0666572206f776e65727368697609c1b6064820152608401610355565b803410156106c75760405162461bcd60e51b8152602060048201526014602482015273125b9cdd59999a58da595b9d081c185e5b595b9d60621b6044820152606401610355565b60008481526001602090815260409091206004810180546001600160a01b0319166001600160a01b0387161790558351610709926005909201918501906117ab565b506000848152600160205260408082206004015490516001600160a01b039091169034908381818185875af1925050503d8060008114610765576040519150601f19603f3d011682016040523d82523d6000602084013e61076a565b606091505b50509050806107b25760405162461bcd60e51b81526020600482015260146024820152732330b4b632b2103a379039b2b7321022ba3432b960611b6044820152606401610355565b60006107bc61178d565b604080516060810182526001600160a01b0388811682526020808301898152428486015260008681526002835294909420835181546001600160a01b0319169316929092178255925180519495509193909261081f9260018501929101906117ab565b5060409182015160029091015560009687526001602081815291882060070180549182018155885296209095019490945550505050565b60016020819052600091825260409091208054918101805461087790611eb8565b80601f01602080910402602001604051908101604052809291908181526020018280546108a390611eb8565b80156108f05780601f106108c5576101008083540402835291602001916108f0565b820191906000526020600020905b8154815290600101906020018083116108d357829003601f168201915b505050600284015460038501805494956001600160a01b0390921694919350915061091a90611eb8565b80601f016020809104026020016040519081016040528092919081815260200182805461094690611eb8565b80156109935780601f1061096857610100808354040283529160200191610993565b820191906000526020600020905b81548152906001019060200180831161097657829003601f168201915b505050600484015460058501805494956001600160a01b039092169491935091506109bd90611eb8565b80601f01602080910402602001604051908101604052809291908181526020018280546109e990611eb8565b8015610a365780601f10610a0b57610100808354040283529160200191610a36565b820191906000526020600020905b815481529060010190602001808311610a1957829003601f168201915b5050505060068301546009840154600a909401549293909290915060ff1689565b6000818152600160205260409020600a015460ff16610ab85760405162461bcd60e51b815260206004820152601760248201527f50726f64756374206973206e6f7420666f722073616c650000000000000000006044820152606401610355565b600081815260016020526040902060090154341015610b105760405162461bcd60e51b8152602060048201526014602482015273125b9cdd59999a58da595b9d081c185e5b595b9d60621b6044820152606401610355565b60008181526001602052604080822060040180546001600160a01b03191633908117909155905190913480156108fc02929091818181858888f19350505050158015610b60573d6000803e3d6000fd5b506000610b6b61178d565b90506040518060600160405280336001600160a01b03168152602001600160008581526020019081526020016000206005018054610ba890611eb8565b80601f0160208091040260200160405190810160405280929190818152602001828054610bd490611eb8565b8015610c215780601f10610bf657610100808354040283529160200191610c21565b820191906000526020600020905b815481529060010190602001808311610c0457829003601f168201915b50505091835250504260209182015260008381526002825260409020825181546001600160a01b0319166001600160a01b039091161781558282015180519192610c73926001850192909101906117ab565b50604091820151600290910155600092835260016020818152918420600701805491820181558452922090910155565b6000828152600160205260409020600401546001600160a01b03163314610d205760405162461bcd60e51b815260206004820152602b60248201527f4f6e6c79207468652063757272656e74206f776e65722063616e20757064617460448201526a652074686520707269636560a81b6064820152608401610355565b60009182526001602052604090912060090155565b60036020526000908152604090208054600182015460028301805492939192610d5d90611eb8565b80601f0160208091040260200160405190810160405280929190818152602001828054610d8990611eb8565b8015610dd65780601f10610dab57610100808354040283529160200191610dd6565b820191906000526020600020905b815481529060010190602001808311610db957829003601f168201915b5050505050905083565b6000838152600160205260409020600401546001600160a01b03163314610e5f5760405162461bcd60e51b815260206004820152602d60248201527f4f6e6c79207468652063757272656e74206f776e65722063616e207265636f7260448201526c642073656e736f72206461746160981b6064820152608401610355565b6000610e6961178d565b604080516060810182524281526020808201878152828401878152600086815260038452949094208351815590516001820155925180519495509193610eb592600285019201906117ab565b50505060009384526001602081815260408620600801805492830181558652909420909301929092555050565b60606000805467ffffffffffffffff811115610f0057610f0061187e565b604051908082528060200260200182016040528015610fa257816020015b610f8f604051806101600160405280600081526020016060815260200160006001600160a01b031681526020016060815260200160006001600160a01b0316815260200160608152602001600081526020016060815260200160608152602001600081526020016000151581525090565b815260200190600190039081610f1e5790505b50905060005b6000548110156112be576000818152600160208181526040928390208351610160810190945280548452918201805491840191610fe490611eb8565b80601f016020809104026020016040519081016040528092919081815260200182805461101090611eb8565b801561105d5780601f106110325761010080835404028352916020019161105d565b820191906000526020600020905b81548152906001019060200180831161104057829003601f168201915b505050918352505060028201546001600160a01b0316602082015260038201805460409092019161108d90611eb8565b80601f01602080910402602001604051908101604052809291908181526020018280546110b990611eb8565b80156111065780601f106110db57610100808354040283529160200191611106565b820191906000526020600020905b8154815290600101906020018083116110e957829003601f168201915b505050918352505060048201546001600160a01b0316602082015260058201805460409092019161113690611eb8565b80601f016020809104026020016040519081016040528092919081815260200182805461116290611eb8565b80156111af5780601f10611184576101008083540402835291602001916111af565b820191906000526020600020905b81548152906001019060200180831161119257829003601f168201915b50505050508152602001600682015481526020016007820180548060200260200160405190810160405280929190818152602001828054801561121157602002820191906000526020600020905b8154815260200190600101908083116111fd575b505050505081526020016008820180548060200260200160405190810160405280929190818152602001828054801561126957602002820191906000526020600020905b815481526020019060010190808311611255575b505050918352505060098201546020820152600a9091015460ff16151560409091015282518390839081106112a0576112a0611eec565b602002602001018190525080806112b690611e91565b915050610fa8565b50919050565b600081815260016020908152604080832060080180548251818502810185019093528083526060949383018282801561131c57602002820191906000526020600020905b815481526020019060010190808311611308575b505050505090506000815167ffffffffffffffff81111561133f5761133f61187e565b60405190808252806020026020018201604052801561139457816020015b61138160405180606001604052806000815260200160008152602001606081525090565b81526020019060019003908161135d5790505b50905060005b82518110156114b65760008382815181106113b7576113b7611eec565b6020026020010151905060036000828152602001908152602001600020604051806060016040529081600082015481526020016001820154815260200160028201805461140390611eb8565b80601f016020809104026020016040519081016040528092919081815260200182805461142f90611eb8565b801561147c5780601f106114515761010080835404028352916020019161147c565b820191906000526020600020905b81548152906001019060200180831161145f57829003601f168201915b50505050508152505083838151811061149757611497611eec565b60200260200101819052505080806114ae90611e91565b91505061139a565b509392505050565b600081815260016020908152604080832060070180548251818502810185019093528083526060949383018282801561151657602002820191906000526020600020905b815481526020019060010190808311611502575b505050505090506000815167ffffffffffffffff8111156115395761153961187e565b60405190808252806020026020018201604052801561159757816020015b611584604051806060016040528060006001600160a01b0316815260200160608152602001600081525090565b8152602001906001900390816115575790505b50905060005b82518110156114b657600260008483815181106115bc576115bc611eec565b602002602001015181526020019081526020016000206040518060600160405290816000820160009054906101000a90046001600160a01b03166001600160a01b03166001600160a01b0316815260200160018201805461161c90611eb8565b80601f016020809104026020016040519081016040528092919081815260200182805461164890611eb8565b80156116955780601f1061166a57610100808354040283529160200191611695565b820191906000526020600020905b81548152906001019060200180831161167857829003601f168201915b505050505081526020016002820154815250508282815181106116ba576116ba611eec565b602002602001018190525080806116d090611e91565b91505061159d565b600260205260009081526040902080546001820180546001600160a01b03909216929161170490611eb8565b80601f016020809104026020016040519081016040528092919081815260200182805461173090611eb8565b801561177d5780601f106117525761010080835404028352916020019161177d565b820191906000526020600020905b81548152906001019060200180831161176057829003601f168201915b5050505050908060020154905083565b600480546000918261179e83611e91565b9190505550600454905090565b8280546117b790611eb8565b90600052602060002090601f0160209004810192826117d9576000855561181f565b82601f106117f257805160ff191683800117855561181f565b8280016001018555821561181f579182015b8281111561181f578251825591602001919060010190611804565b5061182b929150611869565b5090565b82805482825590600052602060002090810192821561181f579160200282018281111561181f578251825591602001919060010190611804565b5b8082111561182b576000815560010161186a565b634e487b7160e01b600052604160045260246000fd5b600082601f8301126118a557600080fd5b813567ffffffffffffffff808211156118c0576118c061187e565b604051601f8301601f19908116603f011681019082821181831017156118e8576118e861187e565b8160405283815286602085880101111561190157600080fd5b836020870160208301376000602085830101528094505050505092915050565b80356001600160a01b038116811461193857600080fd5b919050565b600080600080600080600060e0888a03121561195857600080fd5b873567ffffffffffffffff8082111561197057600080fd5b61197c8b838c01611894565b985061198a60208b01611921565b975060408a01359150808211156119a057600080fd5b6119ac8b838c01611894565b96506119ba60608b01611921565b955060808a01359150808211156119d057600080fd5b506119dd8a828b01611894565b93505060a0880135915060c088013580151581146119fa57600080fd5b8091505092959891949750929550565b600060208284031215611a1c57600080fd5b5035919050565b60008060008060808587031215611a3957600080fd5b84359350611a4960208601611921565b9250604085013567ffffffffffffffff811115611a6557600080fd5b611a7187828801611894565b949793965093946060013593505050565b6000815180845260005b81811015611aa857602081850181015186830182015201611a8c565b81811115611aba576000602083870101525b50601f01601f19169290920160200192915050565b60006101208b8352806020840152611ae98184018c611a82565b6001600160a01b038b811660408601528482036060860152909150611b0e828b611a82565b908916608085015283810360a08501529050611b2a8188611a82565b60c0840196909652505060e08101929092521515610100909101529695505050505050565b60008060408385031215611b6257600080fd5b50508035926020909101359150565b838152826020820152606060408201526000611b906060830184611a82565b95945050505050565b600080600060608486031215611bae57600080fd5b8335925060208401359150604084013567ffffffffffffffff811115611bd357600080fd5b611bdf86828701611894565b9150509250925092565b600081518084526020808501945080840160005b83811015611c1957815187529582019590820190600101611bfd565b509495945050505050565b60006020808301818452808551808352604092508286019150828160051b87010184880160005b83811015611d6057603f1989840301855281516101608151855288820151818a870152611c7a82870182611a82565b91505087820151611c95898701826001600160a01b03169052565b5060608083015186830382880152611cad8382611a82565b92505050608080830151611ccb828801826001600160a01b03169052565b505060a08083015186830382880152611ce48382611a82565b9250505060c080830151818701525060e08083015186830382880152611d0a8382611be9565b925050506101008083015186830382880152611d268382611be9565b92505050610120808301518187015250610140808301519250611d4c8187018415159052565b509588019593505090860190600101611c4b565b509098975050505050505050565b60006020808301818452808551808352604092508286019150828160051b87010184880160005b83811015611d6057888303603f1901855281518051845287810151888501528601516060878501819052611dcb81860183611a82565b968901969450505090860190600101611d95565b60006020808301818452808551808352604092508286019150828160051b87010184880160005b83811015611d6057888303603f19018552815180516001600160a01b0316845287810151606089860181905290611e3f82870182611a82565b92890151958901959095525094870194925090860190600101611e06565b6001600160a01b0384168152606060208201819052600090611e8190830185611a82565b9050826040830152949350505050565b600060018201611eb157634e487b7160e01b600052601160045260246000fd5b5060010190565b600181811c90821680611ecc57607f821691505b6020821081036112be57634e487b7160e01b600052602260045260246000fd5b634e487b7160e01b600052603260045260246000fdfea26469706673582212200d80433b94907332bd7f7980c24e951eb014712af1cdd3b2e50343d0aaa2fca364736f6c634300080d0033",
  "immutableReferences": {},
  "source": "// Last modified by Matteo Griso on 08/08/2024\n\n// SPDX-License-Identifier: MIT\npragma solidity ^0.8.0;\n\ncontract SupplyChainTracker {\n    uint256 public productCount;\n\n    mapping(uint256 => Product) public products;\n    mapping(uint256 => OwnershipEvent) public ownershipEvents;\n    mapping(uint256 => SensorData) public sensorData;\n\n    constructor() {\n        productCount = 0;\n    }\n\n    struct Product {\n        uint256 id;\n        string name;\n        address manufacturer;\n        string serialNumber;\n        address currentOwner;\n        string currentLocation;\n        uint256 timestamp;\n        uint[] ownershipEventIds;\n        uint[] sensorEventIds;\n        uint256 price;\n        bool isForSale;\n    }\n\n    struct OwnershipEvent {\n        address newOwner;\n        string newLocation;\n        uint256 timestamp;\n    }\n\n    struct SensorData {\n        uint timestamp;\n        uint temperature; // Esempio di dato sensoriale\n        string location; // Esempio di dato sensoriale\n    }\n\n    function addProduct(\n        string memory _name,\n        address _manufacturer,\n        string memory _serialNumber,\n        address _initialOwner,\n        string memory _initialLocation,\n        uint256 _price,\n        bool _isForSale\n    ) public {\n        require(msg.sender == _manufacturer, \"Only manufacturer can add products\");\n\n        products[productCount] = Product({\n            id: productCount,\n            name: _name,\n            manufacturer: _manufacturer,\n            serialNumber: _serialNumber,\n            currentOwner: _initialOwner,\n            currentLocation: _initialLocation,\n            timestamp: block.timestamp,\n            ownershipEventIds: new uint[](0),\n            sensorEventIds: new uint[](0),\n            price: _price,\n            isForSale: _isForSale\n        });\n\n        productCount++;\n    }\n\nfunction getProductPrice(uint256 _productId) public view returns (uint256) {\n    return products[_productId].price;\n}\n\nfunction updateProductPrice(uint256 _productId, uint256 _newPrice) public {\n    require(msg.sender == products[_productId].currentOwner, \"Only the current owner can update the price\");\n    products[_productId].price = _newPrice;\n}\n\n\n// Next update: generate an ESCROW contract\nfunction transferOwnership(uint256 _productId, address _newOwner, string memory _newLocation, uint256 _transferFee) public payable {\n    require(msg.sender == products[_productId].currentOwner, \"Only the current owner can transfer ownership\");\n    require(msg.value >= _transferFee, \"Insufficient payment\");\n\n    products[_productId].currentOwner = _newOwner;\n    products[_productId].currentLocation = _newLocation;\n\n    // Assuming transferFee is a constant defined elsewhere\n    (bool sent, ) = payable(products[_productId].currentOwner).call{value: msg.value}(\"\");\n    require(sent, \"Failed to send Ether\");\n\n    uint eventId = generateEventId();\n    ownershipEvents[eventId] = OwnershipEvent(_newOwner, _newLocation, block.timestamp);\n    products[_productId].ownershipEventIds.push(eventId);\n}\n\n\n    // Funzione per generare un ID evento univoco\n    uint private eventIdCounter;\n    function generateEventId() private returns (uint) {\n        eventIdCounter++;\n        return eventIdCounter;\n    }\n\n    // Funzione per ottenere la storia degli eventi di un prodotto\n    function getOwnershipHistory(uint256 _productId) public view returns (OwnershipEvent[] memory) {\n        uint[] memory eventIds = products[_productId].ownershipEventIds;\n        OwnershipEvent[] memory history = new OwnershipEvent[](eventIds.length);\n\n        for (uint i = 0; i < eventIds.length; i++) {\n            history[i] = ownershipEvents[eventIds[i]];\n        }\n\n        return history;\n    }\n\n    // Funzione per ottenere l'elenco dei prodotti\n    function getProducts() public view returns (Product[] memory) {\n        Product[] memory history = new Product[](productCount);\n\n        for (uint i = 0; i < productCount; i++) {\n            history[i] = products[i];\n        }\n\n        return history;\n    }\n\n    // Funzione per registrare i dati dei sensori\n    function recordSensorData(uint _productId, uint _temperature, string memory _location) public {\n        require(msg.sender == products[_productId].currentOwner, \"Only the current owner can record sensor data\");\n\n        uint eventId = generateEventId();\n        sensorData[eventId] = SensorData(block.timestamp, _temperature, _location);\n        products[_productId].sensorEventIds.push(eventId);\n    }\n\n    // Funzione per ottenere i dati dei sensori di un prodotto\n    function getSensorData(uint _productId) public view returns (SensorData[] memory) {\n        uint[] memory eventIds = products[_productId].sensorEventIds;\n        SensorData[] memory data = new SensorData[](eventIds.length);\n\n        for (uint i = 0; i < eventIds.length; i++) {\n            uint index = eventIds[i];\n            data[i] = sensorData[index];\n        }\n\n        return data;\n    }\n\n    function setProductForSale(uint256 _productId) public {\n        require(msg.sender == products[_productId].currentOwner, \"Only the owner can set a product for sale\");\n        products[_productId].isForSale = true;\n    }\n\n    function buyProduct(uint256 _productId) public payable {\n        require(products[_productId].isForSale, \"Product is not for sale\");\n        require(msg.value >= products[_productId].price, \"Insufficient payment\");\n\n        // Transfer ownership\n        products[_productId].currentOwner = msg.sender;\n\n        // Transfer payment\n        payable(products[_productId].currentOwner).transfer(msg.value);\n\n        // Update ownership event\n        uint eventId = generateEventId();\n        ownershipEvents[eventId] = OwnershipEvent(msg.sender, products[_productId].currentLocation, block.timestamp);\n        products[_productId].ownershipEventIds.push(eventId);\n    }\n}\n\n",
  "sourcePath": "/home/matteo/ChainSync/ChainSync/contracts/SupplyChainTracker.sol",
  "compiler": {
    "name": "solc",
    "version": "0.8.13+commit.abaa5c0e.Emscripten.clang"
  },
  "schemaVersion": "3.4.16",
  "updatedAt": "2024-08-20T13:49:42.462Z",
  "networkType": "ethereum",
  "devdoc": {
    "kind": "dev",
    "methods": {},
    "version": 1
  },
  "userdoc": {
    "kind": "user",
    "methods": {},
    "version": 1
  }
}