{
  "contractName": "SupplyChainTracker",
  "abi": [
    {
      "inputs": [],
      "stateMutability": "nonpayable",
      "type": "constructor"
    },
    {
      "inputs": [
        {
          "internalType": "uint256",
          "name": "",
          "type": "uint256"
        }
      ],
      "name": "ownershipEvents",
      "outputs": [
        {
          "internalType": "address",
          "name": "newOwner",
          "type": "address"
        },
        {
          "internalType": "string",
          "name": "newLocation",
          "type": "string"
        },
        {
          "internalType": "uint256",
          "name": "timestamp",
          "type": "uint256"
        }
      ],
      "stateMutability": "view",
      "type": "function",
      "constant": true
    },
    {
      "inputs": [],
      "name": "productCount",
      "outputs": [
        {
          "internalType": "uint256",
          "name": "",
          "type": "uint256"
        }
      ],
      "stateMutability": "view",
      "type": "function",
      "constant": true
    },
    {
      "inputs": [
        {
          "internalType": "uint256",
          "name": "",
          "type": "uint256"
        }
      ],
      "name": "products",
      "outputs": [
        {
          "internalType": "uint256",
          "name": "id",
          "type": "uint256"
        },
        {
          "internalType": "string",
          "name": "name",
          "type": "string"
        },
        {
          "internalType": "address",
          "name": "manufacturer",
          "type": "address"
        },
        {
          "internalType": "string",
          "name": "serialNumber",
          "type": "string"
        },
        {
          "internalType": "address",
          "name": "currentOwner",
          "type": "address"
        },
        {
          "internalType": "string",
          "name": "currentLocation",
          "type": "string"
        },
        {
          "internalType": "uint256",
          "name": "timestamp",
          "type": "uint256"
        },
        {
          "internalType": "uint256",
          "name": "price",
          "type": "uint256"
        },
        {
          "internalType": "bool",
          "name": "isForSale",
          "type": "bool"
        }
      ],
      "stateMutability": "view",
      "type": "function",
      "constant": true
    },
    {
      "inputs": [
        {
          "internalType": "uint256",
          "name": "",
          "type": "uint256"
        }
      ],
      "name": "sensorData",
      "outputs": [
        {
          "internalType": "uint256",
          "name": "timestamp",
          "type": "uint256"
        },
        {
          "internalType": "uint256",
          "name": "temperature",
          "type": "uint256"
        },
        {
          "internalType": "string",
          "name": "location",
          "type": "string"
        }
      ],
      "stateMutability": "view",
      "type": "function",
      "constant": true
    },
    {
      "inputs": [
        {
          "internalType": "string",
          "name": "_name",
          "type": "string"
        },
        {
          "internalType": "address",
          "name": "_manufacturer",
          "type": "address"
        },
        {
          "internalType": "string",
          "name": "_serialNumber",
          "type": "string"
        },
        {
          "internalType": "address",
          "name": "_initialOwner",
          "type": "address"
        },
        {
          "internalType": "string",
          "name": "_initialLocation",
          "type": "string"
        },
        {
          "internalType": "uint256",
          "name": "_price",
          "type": "uint256"
        },
        {
          "internalType": "bool",
          "name": "_isForSale",
          "type": "bool"
        }
      ],
      "name": "addProduct",
      "outputs": [],
      "stateMutability": "nonpayable",
      "type": "function"
    },
    {
      "inputs": [
        {
          "internalType": "uint256",
          "name": "_productId",
          "type": "uint256"
        },
        {
          "internalType": "address",
          "name": "_newOwner",
          "type": "address"
        },
        {
          "internalType": "string",
          "name": "_newLocation",
          "type": "string"
        }
      ],
      "name": "transferOwnership",
      "outputs": [],
      "stateMutability": "payable",
      "type": "function",
      "payable": true
    },
    {
      "inputs": [
        {
          "internalType": "uint256",
          "name": "_productId",
          "type": "uint256"
        }
      ],
      "name": "getOwnershipHistory",
      "outputs": [
        {
          "components": [
            {
              "internalType": "address",
              "name": "newOwner",
              "type": "address"
            },
            {
              "internalType": "string",
              "name": "newLocation",
              "type": "string"
            },
            {
              "internalType": "uint256",
              "name": "timestamp",
              "type": "uint256"
            }
          ],
          "internalType": "struct SupplyChainTracker.OwnershipEvent[]",
          "name": "",
          "type": "tuple[]"
        }
      ],
      "stateMutability": "view",
      "type": "function",
      "constant": true
    },
    {
      "inputs": [],
      "name": "getProducts",
      "outputs": [
        {
          "components": [
            {
              "internalType": "uint256",
              "name": "id",
              "type": "uint256"
            },
            {
              "internalType": "string",
              "name": "name",
              "type": "string"
            },
            {
              "internalType": "address",
              "name": "manufacturer",
              "type": "address"
            },
            {
              "internalType": "string",
              "name": "serialNumber",
              "type": "string"
            },
            {
              "internalType": "address",
              "name": "currentOwner",
              "type": "address"
            },
            {
              "internalType": "string",
              "name": "currentLocation",
              "type": "string"
            },
            {
              "internalType": "uint256",
              "name": "timestamp",
              "type": "uint256"
            },
            {
              "internalType": "uint256",
              "name": "price",
              "type": "uint256"
            },
            {
              "internalType": "bool",
              "name": "isForSale",
              "type": "bool"
            },
            {
              "internalType": "uint256[]",
              "name": "ownershipEventIds",
              "type": "uint256[]"
            },
            {
              "internalType": "uint256[]",
              "name": "sensorEventIds",
              "type": "uint256[]"
            }
          ],
          "internalType": "struct SupplyChainTracker.Product[]",
          "name": "",
          "type": "tuple[]"
        }
      ],
      "stateMutability": "view",
      "type": "function",
      "constant": true
    },
    {
      "inputs": [
        {
          "internalType": "uint256",
          "name": "_productId",
          "type": "uint256"
        },
        {
          "internalType": "uint256",
          "name": "_temperature",
          "type": "uint256"
        },
        {
          "internalType": "string",
          "name": "_location",
          "type": "string"
        }
      ],
      "name": "recordSensorData",
      "outputs": [],
      "stateMutability": "nonpayable",
      "type": "function"
    },
    {
      "inputs": [
        {
          "internalType": "uint256",
          "name": "_productId",
          "type": "uint256"
        }
      ],
      "name": "getSensorData",
      "outputs": [
        {
          "components": [
            {
              "internalType": "uint256",
              "name": "timestamp",
              "type": "uint256"
            },
            {
              "internalType": "uint256",
              "name": "temperature",
              "type": "uint256"
            },
            {
              "internalType": "string",
              "name": "location",
              "type": "string"
            }
          ],
          "internalType": "struct SupplyChainTracker.SensorData[]",
          "name": "",
          "type": "tuple[]"
        }
      ],
      "stateMutability": "view",
      "type": "function",
      "constant": true
    }
  ],
  "bytecode": "0x608060405234801561001057600080fd5b5060008055611acd806100246000396000f3fe6080604052600436106100915760003560e01c8063c29b2f2011610059578063c29b2f2014610158578063e0f6ef871461017a578063ed044aa31461019e578063f1dbaccb146101cb578063fe04d06f146101f857600080fd5b806315bce7f61461009657806371625641146100b85780637acc0b20146100cb578063ab562a1d14610109578063baabdc2214610138575b600080fd5b3480156100a257600080fd5b506100b66100b1366004611513565b610227565b005b6100b66100c63660046115e0565b610496565b3480156100d757600080fd5b506100eb6100e6366004611637565b610701565b6040516101009998979695949392919061169d565b60405180910390f35b34801561011557600080fd5b50610129610124366004611637565b610902565b6040516101009392919061171d565b34801561014457600080fd5b506100b6610153366004611745565b6109ad565b34801561016457600080fd5b5061016d610aaf565b60405161010091906117ba565b34801561018657600080fd5b5061019060005481565b604051908152602001610100565b3480156101aa57600080fd5b506101be6101b9366004611637565b610e9a565b6040516101009190611903565b3480156101d757600080fd5b506101eb6101e6366004611637565b611094565b6040516101009190611974565b34801561020457600080fd5b50610218610213366004611637565b6112ae565b604051610100939291906119f2565b336001600160a01b0387161461028f5760405162461bcd60e51b815260206004820152602260248201527f4f6e6c79206d616e7566616374757265722063616e206164642070726f647563604482015261747360f01b60648201526084015b60405180910390fd5b6040518061016001604052806000548152602001888152602001876001600160a01b03168152602001868152602001856001600160a01b031681526020018481526020014281526020018381526020018215158152602001600067ffffffffffffffff81111561030157610301611454565b60405190808252806020026020018201604052801561032a578160200160208202803683370190505b508152602001600060405190808252806020026020018201604052801561035b578160200160208202803683370190505b50905260008054815260016020818152604090922083518155838301518051919361038b93850192910190611381565b5060408201516002820180546001600160a01b0319166001600160a01b03909216919091179055606082015180516103cd916003840191602090910190611381565b5060808201516004820180546001600160a01b0319166001600160a01b0390921691909117905560a0820151805161040f916005840191602090910190611381565b5060c0820151600682015560e0820151600782015561010082015160088201805460ff19169115159190911790556101208201518051610459916009840191602090910190611405565b50610140820151805161047691600a840191602090910190611405565b50506000805491508061048883611a26565b919050555050505050505050565b6000838152600160205260409020600401546001600160a01b031633146105155760405162461bcd60e51b815260206004820152602d60248201527f4f6e6c79207468652063757272656e74206f776e65722063616e207472616e7360448201526c0666572206f776e65727368697609c1b6064820152608401610286565b60008381526001602052604090206007015434101561056d5760405162461bcd60e51b8152602060048201526014602482015273125b9cdd59999a58da595b9d081c185e5b595b9d60621b6044820152606401610286565b60008381526001602090815260409091203460078201556004810180546001600160a01b0319166001600160a01b03861617905582516105b592600590920191840190611381565b506000838152600160205260408082206004015490516001600160a01b039091169034908381818185875af1925050503d8060008114610611576040519150601f19603f3d011682016040523d82523d6000602084013e610616565b606091505b505090508061065e5760405162461bcd60e51b81526020600482015260146024820152732330b4b632b2103a379039b2b7321022ba3432b960611b6044820152606401610286565b6000610668611363565b604080516060810182526001600160a01b0387811682526020808301888152428486015260008681526002835294909420835181546001600160a01b031916931692909217825592518051949550919390926106cb926001850192910190611381565b50604091820151600290910155600095865260016020818152918720600901805491820181558752952090940193909355505050565b60016020819052600091825260409091208054918101805461072290611a4d565b80601f016020809104026020016040519081016040528092919081815260200182805461074e90611a4d565b801561079b5780601f106107705761010080835404028352916020019161079b565b820191906000526020600020905b81548152906001019060200180831161077e57829003601f168201915b505050600284015460038501805494956001600160a01b039092169491935091506107c590611a4d565b80601f01602080910402602001604051908101604052809291908181526020018280546107f190611a4d565b801561083e5780601f106108135761010080835404028352916020019161083e565b820191906000526020600020905b81548152906001019060200180831161082157829003601f168201915b505050600484015460058501805494956001600160a01b0390921694919350915061086890611a4d565b80601f016020809104026020016040519081016040528092919081815260200182805461089490611a4d565b80156108e15780601f106108b6576101008083540402835291602001916108e1565b820191906000526020600020905b8154815290600101906020018083116108c457829003601f168201915b50505050600683015460078401546008909401549293909290915060ff1689565b6003602052600090815260409020805460018201546002830180549293919261092a90611a4d565b80601f016020809104026020016040519081016040528092919081815260200182805461095690611a4d565b80156109a35780601f10610978576101008083540402835291602001916109a3565b820191906000526020600020905b81548152906001019060200180831161098657829003601f168201915b5050505050905083565b6000838152600160205260409020600401546001600160a01b03163314610a2c5760405162461bcd60e51b815260206004820152602d60248201527f4f6e6c79207468652063757272656e74206f776e65722063616e207265636f7260448201526c642073656e736f72206461746160981b6064820152608401610286565b6000610a36611363565b604080516060810182524281526020808201878152828401878152600086815260038452949094208351815590516001820155925180519495509193610a829260028501920190611381565b50505060009384526001602081815260408620600a01805492830181558652909420909301929092555050565b60606000805467ffffffffffffffff811115610acd57610acd611454565b604051908082528060200260200182016040528015610b6f57816020015b610b5c604051806101600160405280600081526020016060815260200160006001600160a01b031681526020016060815260200160006001600160a01b0316815260200160608152602001600081526020016000815260200160001515815260200160608152602001606081525090565b815260200190600190039081610aeb5790505b50905060005b600054811015610e94576000818152600160208181526040928390208351610160810190945280548452918201805491840191610bb190611a4d565b80601f0160208091040260200160405190810160405280929190818152602001828054610bdd90611a4d565b8015610c2a5780601f10610bff57610100808354040283529160200191610c2a565b820191906000526020600020905b815481529060010190602001808311610c0d57829003601f168201915b505050918352505060028201546001600160a01b03166020820152600382018054604090920191610c5a90611a4d565b80601f0160208091040260200160405190810160405280929190818152602001828054610c8690611a4d565b8015610cd35780601f10610ca857610100808354040283529160200191610cd3565b820191906000526020600020905b815481529060010190602001808311610cb657829003601f168201915b505050918352505060048201546001600160a01b03166020820152600582018054604090920191610d0390611a4d565b80601f0160208091040260200160405190810160405280929190818152602001828054610d2f90611a4d565b8015610d7c5780601f10610d5157610100808354040283529160200191610d7c565b820191906000526020600020905b815481529060010190602001808311610d5f57829003601f168201915b5050505050815260200160068201548152602001600782015481526020016008820160009054906101000a900460ff1615151515815260200160098201805480602002602001604051908101604052809291908181526020018280548015610e0357602002820191906000526020600020905b815481526020019060010190808311610def575b50505050508152602001600a8201805480602002602001604051908101604052809291908181526020018280548015610e5b57602002820191906000526020600020905b815481526020019060010190808311610e47575b505050505081525050828281518110610e7657610e76611a81565b60200260200101819052508080610e8c90611a26565b915050610b75565b50919050565b6000818152600160209081526040808320600a01805482518185028101850190935280835260609493830182828015610ef257602002820191906000526020600020905b815481526020019060010190808311610ede575b505050505090506000815167ffffffffffffffff811115610f1557610f15611454565b604051908082528060200260200182016040528015610f6a57816020015b610f5760405180606001604052806000815260200160008152602001606081525090565b815260200190600190039081610f335790505b50905060005b825181101561108c576000838281518110610f8d57610f8d611a81565b60200260200101519050600360008281526020019081526020016000206040518060600160405290816000820154815260200160018201548152602001600282018054610fd990611a4d565b80601f016020809104026020016040519081016040528092919081815260200182805461100590611a4d565b80156110525780601f1061102757610100808354040283529160200191611052565b820191906000526020600020905b81548152906001019060200180831161103557829003601f168201915b50505050508152505083838151811061106d5761106d611a81565b602002602001018190525050808061108490611a26565b915050610f70565b509392505050565b60008181526001602090815260408083206009018054825181850281018501909352808352606094938301828280156110ec57602002820191906000526020600020905b8154815260200190600101908083116110d8575b505050505090506000815167ffffffffffffffff81111561110f5761110f611454565b60405190808252806020026020018201604052801561116d57816020015b61115a604051806060016040528060006001600160a01b0316815260200160608152602001600081525090565b81526020019060019003908161112d5790505b50905060005b825181101561108c576002600084838151811061119257611192611a81565b602002602001015181526020019081526020016000206040518060600160405290816000820160009054906101000a90046001600160a01b03166001600160a01b03166001600160a01b031681526020016001820180546111f290611a4d565b80601f016020809104026020016040519081016040528092919081815260200182805461121e90611a4d565b801561126b5780601f106112405761010080835404028352916020019161126b565b820191906000526020600020905b81548152906001019060200180831161124e57829003601f168201915b5050505050815260200160028201548152505082828151811061129057611290611a81565b602002602001018190525080806112a690611a26565b915050611173565b600260205260009081526040902080546001820180546001600160a01b0390921692916112da90611a4d565b80601f016020809104026020016040519081016040528092919081815260200182805461130690611a4d565b80156113535780601f1061132857610100808354040283529160200191611353565b820191906000526020600020905b81548152906001019060200180831161133657829003601f168201915b5050505050908060020154905083565b600480546000918261137483611a26565b9190505550600454905090565b82805461138d90611a4d565b90600052602060002090601f0160209004810192826113af57600085556113f5565b82601f106113c857805160ff19168380011785556113f5565b828001600101855582156113f5579182015b828111156113f55782518255916020019190600101906113da565b5061140192915061143f565b5090565b8280548282559060005260206000209081019282156113f557916020028201828111156113f55782518255916020019190600101906113da565b5b808211156114015760008155600101611440565b634e487b7160e01b600052604160045260246000fd5b600082601f83011261147b57600080fd5b813567ffffffffffffffff8082111561149657611496611454565b604051601f8301601f19908116603f011681019082821181831017156114be576114be611454565b816040528381528660208588010111156114d757600080fd5b836020870160208301376000602085830101528094505050505092915050565b80356001600160a01b038116811461150e57600080fd5b919050565b600080600080600080600060e0888a03121561152e57600080fd5b873567ffffffffffffffff8082111561154657600080fd5b6115528b838c0161146a565b985061156060208b016114f7565b975060408a013591508082111561157657600080fd5b6115828b838c0161146a565b965061159060608b016114f7565b955060808a01359150808211156115a657600080fd5b506115b38a828b0161146a565b93505060a0880135915060c088013580151581146115d057600080fd5b8091505092959891949750929550565b6000806000606084860312156115f557600080fd5b83359250611605602085016114f7565b9150604084013567ffffffffffffffff81111561162157600080fd5b61162d8682870161146a565b9150509250925092565b60006020828403121561164957600080fd5b5035919050565b6000815180845260005b818110156116765760208185018101518683018201520161165a565b81811115611688576000602083870101525b50601f01601f19169290920160200192915050565b60006101208b83528060208401526116b78184018c611650565b6001600160a01b038b8116604086015284820360608601529091506116dc828b611650565b908916608085015283810360a085015290506116f88188611650565b60c0840196909652505060e08101929092521515610100909101529695505050505050565b83815282602082015260606040820152600061173c6060830184611650565b95945050505050565b60008060006060848603121561175a57600080fd5b8335925060208401359150604084013567ffffffffffffffff81111561162157600080fd5b600081518084526020808501945080840160005b838110156117af57815187529582019590820190600101611793565b509495945050505050565b60006020808301818452808551808352604092508286019150828160051b87010184880160005b838110156118f557603f1989840301855281516101608151855288820151818a87015261181082870182611650565b9150508782015161182b898701826001600160a01b03169052565b50606080830151868303828801526118438382611650565b92505050608080830151611861828801826001600160a01b03169052565b505060a0808301518683038288015261187a8382611650565b9250505060c080830151818701525060e0808301518187015250610100808301516118a88288018215159052565b505061012080830151868303828801526118c2838261177f565b9250505061014080830151925085820381870152506118e1818361177f565b9689019694505050908601906001016117e1565b509098975050505050505050565b60006020808301818452808551808352604092508286019150828160051b87010184880160005b838110156118f557888303603f190185528151805184528781015188850152860151606087850181905261196081860183611650565b96890196945050509086019060010161192a565b60006020808301818452808551808352604092508286019150828160051b87010184880160005b838110156118f557888303603f19018552815180516001600160a01b03168452878101516060898601819052906119d482870182611650565b9289015195890195909552509487019492509086019060010161199b565b6001600160a01b0384168152606060208201819052600090611a1690830185611650565b9050826040830152949350505050565b600060018201611a4657634e487b7160e01b600052601160045260246000fd5b5060010190565b600181811c90821680611a6157607f821691505b602082108103610e9457634e487b7160e01b600052602260045260246000fd5b634e487b7160e01b600052603260045260246000fdfea26469706673582212200eeddd505d78c95994912f0c96d95e30d7d066f8e7e6995a9e2175d22e4a590c64736f6c634300080d0033",
  "immutableReferences": {},
  "source": "// Last modified by Matteo Griso on 08/08/2024\n\n// SPDX-License-Identifier: MIT\npragma solidity ^0.8.0;\n\ncontract SupplyChainTracker {\n    uint256 public productCount;\n\n    mapping(uint256 => Product) public products;\n    mapping(uint256 => OwnershipEvent) public ownershipEvents;\n    mapping(uint256 => SensorData) public sensorData;\n\n    constructor() {\n        productCount = 0;\n    }\n\n    struct Product {\n        uint256 id;\n        string name;\n        address manufacturer;\n        string serialNumber;\n        address currentOwner;\n        string currentLocation;\n        uint256 timestamp;\n        uint256 price;\n        bool isForSale;\n        uint[] ownershipEventIds;\n        uint[] sensorEventIds;\n    }\n\n    struct OwnershipEvent {\n        address newOwner;\n        string newLocation;\n        uint256 timestamp;\n    }\n\n    struct SensorData {\n        uint timestamp;\n        uint temperature; // Esempio di dato sensoriale\n        string location; // Esempio di dato sensoriale\n    }\n\n    function addProduct(\n        string memory _name,\n        address _manufacturer,\n        string memory _serialNumber,\n        address _initialOwner,\n        string memory _initialLocation,\n        uint256 _price,\n        bool _isForSale\n    ) public {\n        require(msg.sender == _manufacturer, \"Only manufacturer can add products\");\n\n        products[productCount] = Product({\n            id: productCount,\n            name: _name,\n            manufacturer: _manufacturer,\n            serialNumber: _serialNumber,\n            currentOwner: _initialOwner,\n            currentLocation: _initialLocation,\n            timestamp: block.timestamp,\n            ownershipEventIds: new uint[](0),\n            sensorEventIds: new uint[](0),\n            price: _price,\n            isForSale: _isForSale\n        });\n\n        productCount++;\n    }\n\n\n// Next update: generate an ESCROW contract\nfunction transferOwnership(uint256 _productId, address _newOwner, string memory _newLocation) public payable {\n    require(msg.sender == products[_productId].currentOwner, \"Only the current owner can transfer ownership\");\n    require(msg.value >= products[_productId].price, \"Insufficient payment\");\n\n    // Update product price\n    products[_productId].price = msg.value;\n    products[_productId].currentOwner = _newOwner;\n    products[_productId].currentLocation = _newLocation;\n\n    // Assuming transferFee is a constant defined elsewhere\n    (bool sent, ) = payable(products[_productId].currentOwner).call{value: msg.value}(\"\");\n    require(sent, \"Failed to send Ether\");\n\n    uint eventId = generateEventId();\n    ownershipEvents[eventId] = OwnershipEvent(_newOwner, _newLocation, block.timestamp);\n    products[_productId].ownershipEventIds.push(eventId);\n}\n\n\n    // Funzione per generare un ID evento univoco\n    uint private eventIdCounter;\n    function generateEventId() private returns (uint) {\n        eventIdCounter++;\n        return eventIdCounter;\n    }\n\n    // Funzione per ottenere la storia degli eventi di un prodotto\n    function getOwnershipHistory(uint256 _productId) public view returns (OwnershipEvent[] memory) {\n        uint[] memory eventIds = products[_productId].ownershipEventIds;\n        OwnershipEvent[] memory history = new OwnershipEvent[](eventIds.length);\n\n        for (uint i = 0; i < eventIds.length; i++) {\n            history[i] = ownershipEvents[eventIds[i]];\n        }\n\n        return history;\n    }\n\n    // Funzione per ottenere l'elenco dei prodotti\n    function getProducts() public view returns (Product[] memory) {\n        Product[] memory history = new Product[](productCount);\n\n        for (uint i = 0; i < productCount; i++) {\n            history[i] = products[i];\n        }\n\n        return history;\n    }\n\n    // Funzione per registrare i dati dei sensori\n    function recordSensorData(uint _productId, uint _temperature, string memory _location) public {\n        require(msg.sender == products[_productId].currentOwner, \"Only the current owner can record sensor data\");\n\n        uint eventId = generateEventId();\n        sensorData[eventId] = SensorData(block.timestamp, _temperature, _location);\n        products[_productId].sensorEventIds.push(eventId);\n    }\n\n    // Funzione per ottenere i dati dei sensori di un prodotto\n    function getSensorData(uint _productId) public view returns (SensorData[] memory) {\n        uint[] memory eventIds = products[_productId].sensorEventIds;\n        SensorData[] memory data = new SensorData[](eventIds.length);\n\n        for (uint i = 0; i < eventIds.length; i++) {\n            uint index = eventIds[i];\n            data[i] = sensorData[index];\n        }\n\n        return data;\n    }\n}\n\n",
  "sourcePath": "/home/matteo/ChainSync/ChainSync/contracts/SupplyChainTracker.sol",
  "compiler": {
    "name": "solc",
    "version": "0.8.13+commit.abaa5c0e.Emscripten.clang"
  },
  "schemaVersion": "3.4.16",
  "updatedAt": "2024-10-06T15:42:36.485Z",
  "networkType": "ethereum",
  "devdoc": {
    "kind": "dev",
    "methods": {},
    "version": 1
  },
  "userdoc": {
    "kind": "user",
    "methods": {},
    "version": 1
  }
}