{
  "contractName": "SupplyChainTracker",
  "abi": [
    {
      "inputs": [],
      "stateMutability": "nonpayable",
      "type": "constructor"
    },
    {
      "inputs": [],
      "name": "owner",
      "outputs": [
        {
          "internalType": "address",
          "name": "",
          "type": "address"
        }
      ],
      "stateMutability": "view",
      "type": "function",
      "constant": true
    },
    {
      "inputs": [
        {
          "internalType": "uint256",
          "name": "",
          "type": "uint256"
        }
      ],
      "name": "ownershipEvents",
      "outputs": [
        {
          "internalType": "address",
          "name": "newOwner",
          "type": "address"
        },
        {
          "internalType": "string",
          "name": "newLocation",
          "type": "string"
        },
        {
          "internalType": "uint256",
          "name": "timestamp",
          "type": "uint256"
        }
      ],
      "stateMutability": "view",
      "type": "function",
      "constant": true
    },
    {
      "inputs": [],
      "name": "productCount",
      "outputs": [
        {
          "internalType": "uint256",
          "name": "",
          "type": "uint256"
        }
      ],
      "stateMutability": "view",
      "type": "function",
      "constant": true
    },
    {
      "inputs": [
        {
          "internalType": "uint256",
          "name": "",
          "type": "uint256"
        }
      ],
      "name": "products",
      "outputs": [
        {
          "internalType": "uint256",
          "name": "id",
          "type": "uint256"
        },
        {
          "internalType": "string",
          "name": "name",
          "type": "string"
        },
        {
          "internalType": "address",
          "name": "manufacturer",
          "type": "address"
        },
        {
          "internalType": "string",
          "name": "serialNumber",
          "type": "string"
        },
        {
          "internalType": "address",
          "name": "currentOwner",
          "type": "address"
        },
        {
          "internalType": "string",
          "name": "currentLocation",
          "type": "string"
        },
        {
          "internalType": "uint256",
          "name": "timestamp",
          "type": "uint256"
        },
        {
          "internalType": "uint256",
          "name": "price",
          "type": "uint256"
        },
        {
          "internalType": "bool",
          "name": "isForSale",
          "type": "bool"
        }
      ],
      "stateMutability": "view",
      "type": "function",
      "constant": true
    },
    {
      "inputs": [
        {
          "internalType": "uint256",
          "name": "",
          "type": "uint256"
        }
      ],
      "name": "sensorData",
      "outputs": [
        {
          "internalType": "uint256",
          "name": "timestamp",
          "type": "uint256"
        },
        {
          "internalType": "uint256",
          "name": "temperature",
          "type": "uint256"
        },
        {
          "internalType": "string",
          "name": "location",
          "type": "string"
        }
      ],
      "stateMutability": "view",
      "type": "function",
      "constant": true
    },
    {
      "inputs": [
        {
          "internalType": "string",
          "name": "_name",
          "type": "string"
        },
        {
          "internalType": "address",
          "name": "_manufacturer",
          "type": "address"
        },
        {
          "internalType": "string",
          "name": "_serialNumber",
          "type": "string"
        },
        {
          "internalType": "address",
          "name": "_initialOwner",
          "type": "address"
        },
        {
          "internalType": "string",
          "name": "_initialLocation",
          "type": "string"
        },
        {
          "internalType": "uint256",
          "name": "_price",
          "type": "uint256"
        },
        {
          "internalType": "bool",
          "name": "_isForSale",
          "type": "bool"
        }
      ],
      "name": "addProduct",
      "outputs": [],
      "stateMutability": "payable",
      "type": "function",
      "payable": true
    },
    {
      "inputs": [
        {
          "internalType": "uint256",
          "name": "_productId",
          "type": "uint256"
        },
        {
          "internalType": "string",
          "name": "_newLocation",
          "type": "string"
        }
      ],
      "name": "updateLocation",
      "outputs": [],
      "stateMutability": "nonpayable",
      "type": "function"
    },
    {
      "inputs": [
        {
          "internalType": "uint256",
          "name": "_productId",
          "type": "uint256"
        },
        {
          "internalType": "uint256",
          "name": "_newPrice",
          "type": "uint256"
        }
      ],
      "name": "updatePrice",
      "outputs": [],
      "stateMutability": "nonpayable",
      "type": "function"
    },
    {
      "inputs": [
        {
          "internalType": "uint256",
          "name": "_productId",
          "type": "uint256"
        },
        {
          "internalType": "bool",
          "name": "_isForSale",
          "type": "bool"
        }
      ],
      "name": "updateIsForSale",
      "outputs": [],
      "stateMutability": "nonpayable",
      "type": "function"
    },
    {
      "inputs": [
        {
          "internalType": "uint256",
          "name": "_productId",
          "type": "uint256"
        },
        {
          "internalType": "address",
          "name": "_newOwner",
          "type": "address"
        },
        {
          "internalType": "string",
          "name": "_newLocation",
          "type": "string"
        }
      ],
      "name": "transferOwnership",
      "outputs": [],
      "stateMutability": "payable",
      "type": "function",
      "payable": true
    },
    {
      "inputs": [
        {
          "internalType": "uint256",
          "name": "_productId",
          "type": "uint256"
        }
      ],
      "name": "getOwnershipHistory",
      "outputs": [
        {
          "components": [
            {
              "internalType": "address",
              "name": "newOwner",
              "type": "address"
            },
            {
              "internalType": "string",
              "name": "newLocation",
              "type": "string"
            },
            {
              "internalType": "uint256",
              "name": "timestamp",
              "type": "uint256"
            }
          ],
          "internalType": "struct SupplyChainTracker.OwnershipEvent[]",
          "name": "",
          "type": "tuple[]"
        }
      ],
      "stateMutability": "view",
      "type": "function",
      "constant": true
    },
    {
      "inputs": [],
      "name": "getProducts",
      "outputs": [
        {
          "components": [
            {
              "internalType": "uint256",
              "name": "id",
              "type": "uint256"
            },
            {
              "internalType": "string",
              "name": "name",
              "type": "string"
            },
            {
              "internalType": "address",
              "name": "manufacturer",
              "type": "address"
            },
            {
              "internalType": "string",
              "name": "serialNumber",
              "type": "string"
            },
            {
              "internalType": "address",
              "name": "currentOwner",
              "type": "address"
            },
            {
              "internalType": "string",
              "name": "currentLocation",
              "type": "string"
            },
            {
              "internalType": "uint256",
              "name": "timestamp",
              "type": "uint256"
            },
            {
              "internalType": "uint256",
              "name": "price",
              "type": "uint256"
            },
            {
              "internalType": "bool",
              "name": "isForSale",
              "type": "bool"
            },
            {
              "internalType": "uint256[]",
              "name": "ownershipEventIds",
              "type": "uint256[]"
            },
            {
              "internalType": "uint256[]",
              "name": "sensorEventIds",
              "type": "uint256[]"
            }
          ],
          "internalType": "struct SupplyChainTracker.Product[]",
          "name": "",
          "type": "tuple[]"
        }
      ],
      "stateMutability": "view",
      "type": "function",
      "constant": true
    },
    {
      "inputs": [
        {
          "internalType": "uint256",
          "name": "_productId",
          "type": "uint256"
        },
        {
          "internalType": "uint256",
          "name": "_temperature",
          "type": "uint256"
        },
        {
          "internalType": "string",
          "name": "_location",
          "type": "string"
        }
      ],
      "name": "recordSensorData",
      "outputs": [],
      "stateMutability": "nonpayable",
      "type": "function"
    },
    {
      "inputs": [
        {
          "internalType": "uint256",
          "name": "_productId",
          "type": "uint256"
        }
      ],
      "name": "getSensorData",
      "outputs": [
        {
          "components": [
            {
              "internalType": "uint256",
              "name": "timestamp",
              "type": "uint256"
            },
            {
              "internalType": "uint256",
              "name": "temperature",
              "type": "uint256"
            },
            {
              "internalType": "string",
              "name": "location",
              "type": "string"
            }
          ],
          "internalType": "struct SupplyChainTracker.SensorData[]",
          "name": "",
          "type": "tuple[]"
        }
      ],
      "stateMutability": "view",
      "type": "function",
      "constant": true
    }
  ],
  "bytecode": "0x608060405234801561001057600080fd5b50600080546001600160a01b03191633178155600155611fa6806100356000396000f3fe6080604052600436106100dd5760003560e01c8063ab562a1d1161007f578063e0f6ef8711610059578063e0f6ef8714610251578063ed044aa314610275578063f1dbaccb146102a2578063fe04d06f146102cf57600080fd5b8063ab562a1d146101e0578063baabdc221461020f578063c29b2f201461022f57600080fd5b806371625641116100bb57806371625641146101375780637acc0b201461014a57806382367b2d146101885780638da5cb5b146101a857600080fd5b806315bce7f6146100e25780634ec0c9e9146100f757806363e2d5d314610117575b600080fd5b6100f56100f03660046118e0565b6102fe565b005b34801561010357600080fd5b506100f56101123660046119a4565b6105cb565b34801561012357600080fd5b506100f56101323660046119eb565b610697565b6100f5610145366004611a17565b610762565b34801561015657600080fd5b5061016a610165366004611a6e565b610a00565b60405161017f99989796959493929190611ad4565b60405180910390f35b34801561019457600080fd5b506100f56101a3366004611b54565b610c02565b3480156101b457600080fd5b506000546101c8906001600160a01b031681565b6040516001600160a01b03909116815260200161017f565b3480156101ec57600080fd5b506102006101fb366004611a6e565b610cb6565b60405161017f93929190611b76565b34801561021b57600080fd5b506100f561022a366004611b9e565b610d61565b34801561023b57600080fd5b50610244610e64565b60405161017f9190611c13565b34801561025d57600080fd5b5061026760015481565b60405190815260200161017f565b34801561028157600080fd5b50610295610290366004611a6e565b611257565b60405161017f9190611d5c565b3480156102ae57600080fd5b506102c26102bd366004611a6e565b611451565b60405161017f9190611dcd565b3480156102db57600080fd5b506102ef6102ea366004611a6e565b61166b565b60405161017f93929190611e4b565b336001600160a01b038716146103665760405162461bcd60e51b815260206004820152602260248201527f4f6e6c79206d616e7566616374757265722063616e206164642070726f647563604482015261747360f01b60648201526084015b60405180910390fd5b606461037383600a611e95565b61037d9190611eb4565b3410156103bf5760405162461bcd60e51b815260206004820152601060248201526f496e73756666696369656e742066656560801b604482015260640161035d565b6040518061016001604052806001548152602001888152602001876001600160a01b03168152602001868152602001856001600160a01b031681526020018481526020014281526020018381526020018215158152602001600067ffffffffffffffff81111561043157610431611811565b60405190808252806020026020018201604052801561045a578160200160208202803683370190505b508152602001600060405190808252806020026020018201604052801561048b578160200160208202803683370190505b5090526001805460009081526002602090815260409091208351815583820151805191936104bf939085019291019061173e565b5060408201516002820180546001600160a01b0319166001600160a01b039092169190911790556060820151805161050191600384019160209091019061173e565b5060808201516004820180546001600160a01b0319166001600160a01b0390921691909117905560a0820151805161054391600584019160209091019061173e565b5060c0820151600682015560e0820151600782015561010082015160088201805460ff1916911515919091179055610120820151805161058d9160098401916020909101906117c2565b5061014082015180516105aa91600a8401916020909101906117c2565b505060018054915060006105bd83611ed6565b919050555050505050505050565b60015482106105ec5760405162461bcd60e51b815260040161035d90611eef565b6000828152600260205260409020600401546001600160a01b0316331461066d5760405162461bcd60e51b815260206004820152602f60248201527f4f6e6c79207468652063757272656e74206f776e65722063616e20757064617460448201526e32903a3432903637b1b0ba34b7b71760891b606482015260840161035d565b600082815260026020908152604090912082516106929260059092019184019061173e565b505050565b60015482106106b85760405162461bcd60e51b815260040161035d90611eef565b6000828152600260205260409020600401546001600160a01b0316331461073f5760405162461bcd60e51b815260206004820152603560248201527f4f6e6c79207468652063757272656e74206f776e65722063616e20757064617460448201527432903a34329034b9a337b929b0b63290333630b39760591b606482015260840161035d565b600091825260026020526040909120600801805460ff1916911515919091179055565b60015483106107835760405162461bcd60e51b815260040161035d90611eef565b6000838152600260205260409020600401546001600160a01b031633036108085760405162461bcd60e51b815260206004820152603360248201527f43757272656e74206f776e65722063616e27742062757920612066726f6d20706044820152723937b23ab1ba10333937b6903434b6b9b2b63360691b606482015260840161035d565b60008381526002602052604090206008015460ff166108795760405162461bcd60e51b815260206004820152602760248201527f546869732070726f64756374206973206e6f742063757272656e746c7920666f604482015266391039b0b6329760c91b606482015260840161035d565b6000838152600260205260409020600701543410156108d25760405162461bcd60e51b815260206004820152601560248201527424b739bab33334b1b4b2b73a103830bcb6b2b73a1760591b604482015260640161035d565b60008381526002602090815260409091206004810180546001600160a01b0319166001600160a01b03861617905582516109149260059092019184019061173e565b506000838152600260205260408082206004015490516001600160a01b03909116913480156108fc02929091818181858888f1935050505015801561095d573d6000803e3d6000fd5b506000610968611720565b604080516060810182526001600160a01b0386811682526020808301878152428486015260008681526003835294909420835181546001600160a01b031916931692909217825592518051949550919390926109cb92600185019291019061173e565b506040918201516002918201556000958652602090815290852060090180546001810182559086529420909301929092555050565b60026020526000908152604090208054600182018054919291610a2290611f26565b80601f0160208091040260200160405190810160405280929190818152602001828054610a4e90611f26565b8015610a9b5780601f10610a7057610100808354040283529160200191610a9b565b820191906000526020600020905b815481529060010190602001808311610a7e57829003601f168201915b505050600284015460038501805494956001600160a01b03909216949193509150610ac590611f26565b80601f0160208091040260200160405190810160405280929190818152602001828054610af190611f26565b8015610b3e5780601f10610b1357610100808354040283529160200191610b3e565b820191906000526020600020905b815481529060010190602001808311610b2157829003601f168201915b505050600484015460058501805494956001600160a01b03909216949193509150610b6890611f26565b80601f0160208091040260200160405190810160405280929190818152602001828054610b9490611f26565b8015610be15780601f10610bb657610100808354040283529160200191610be1565b820191906000526020600020905b815481529060010190602001808311610bc457829003601f168201915b50505050600683015460078401546008909401549293909290915060ff1689565b6001548210610c235760405162461bcd60e51b815260040161035d90611eef565b6000828152600260205260409020600401546001600160a01b03163314610ca15760405162461bcd60e51b815260206004820152602c60248201527f4f6e6c79207468652063757272656e74206f776e65722063616e20757064617460448201526b32903a343290383934b1b29760a11b606482015260840161035d565b60009182526002602052604090912060070155565b60046020526000908152604090208054600182015460028301805492939192610cde90611f26565b80601f0160208091040260200160405190810160405280929190818152602001828054610d0a90611f26565b8015610d575780601f10610d2c57610100808354040283529160200191610d57565b820191906000526020600020905b815481529060010190602001808311610d3a57829003601f168201915b5050505050905083565b6000838152600260205260409020600401546001600160a01b03163314610de05760405162461bcd60e51b815260206004820152602d60248201527f4f6e6c79207468652063757272656e74206f776e65722063616e207265636f7260448201526c642073656e736f72206461746160981b606482015260840161035d565b6000610dea611720565b604080516060810182524281526020808201878152828401878152600086815260048452949094208351815590516001820155925180519495509193610e36926002850192019061173e565b50505060009384526002602090815260408520600a0180546001810182559086529420909301929092555050565b6060600060015467ffffffffffffffff811115610e8357610e83611811565b604051908082528060200260200182016040528015610f2557816020015b610f12604051806101600160405280600081526020016060815260200160006001600160a01b031681526020016060815260200160006001600160a01b0316815260200160608152602001600081526020016000815260200160001515815260200160608152602001606081525090565b815260200190600190039081610ea15790505b50905060005b60015481101561125157600260008281526020019081526020016000206040518061016001604052908160008201548152602001600182018054610f6e90611f26565b80601f0160208091040260200160405190810160405280929190818152602001828054610f9a90611f26565b8015610fe75780601f10610fbc57610100808354040283529160200191610fe7565b820191906000526020600020905b815481529060010190602001808311610fca57829003601f168201915b505050918352505060028201546001600160a01b0316602082015260038201805460409092019161101790611f26565b80601f016020809104026020016040519081016040528092919081815260200182805461104390611f26565b80156110905780601f1061106557610100808354040283529160200191611090565b820191906000526020600020905b81548152906001019060200180831161107357829003601f168201915b505050918352505060048201546001600160a01b031660208201526005820180546040909201916110c090611f26565b80601f01602080910402602001604051908101604052809291908181526020018280546110ec90611f26565b80156111395780601f1061110e57610100808354040283529160200191611139565b820191906000526020600020905b81548152906001019060200180831161111c57829003601f168201915b5050505050815260200160068201548152602001600782015481526020016008820160009054906101000a900460ff16151515158152602001600982018054806020026020016040519081016040528092919081815260200182805480156111c057602002820191906000526020600020905b8154815260200190600101908083116111ac575b50505050508152602001600a820180548060200260200160405190810160405280929190818152602001828054801561121857602002820191906000526020600020905b815481526020019060010190808311611204575b50505050508152505082828151811061123357611233611f5a565b6020026020010181905250808061124990611ed6565b915050610f2b565b50919050565b6000818152600260209081526040808320600a018054825181850281018501909352808352606094938301828280156112af57602002820191906000526020600020905b81548152602001906001019080831161129b575b505050505090506000815167ffffffffffffffff8111156112d2576112d2611811565b60405190808252806020026020018201604052801561132757816020015b61131460405180606001604052806000815260200160008152602001606081525090565b8152602001906001900390816112f05790505b50905060005b825181101561144957600083828151811061134a5761134a611f5a565b6020026020010151905060046000828152602001908152602001600020604051806060016040529081600082015481526020016001820154815260200160028201805461139690611f26565b80601f01602080910402602001604051908101604052809291908181526020018280546113c290611f26565b801561140f5780601f106113e45761010080835404028352916020019161140f565b820191906000526020600020905b8154815290600101906020018083116113f257829003601f168201915b50505050508152505083838151811061142a5761142a611f5a565b602002602001018190525050808061144190611ed6565b91505061132d565b509392505050565b60008181526002602090815260408083206009018054825181850281018501909352808352606094938301828280156114a957602002820191906000526020600020905b815481526020019060010190808311611495575b505050505090506000815167ffffffffffffffff8111156114cc576114cc611811565b60405190808252806020026020018201604052801561152a57816020015b611517604051806060016040528060006001600160a01b0316815260200160608152602001600081525090565b8152602001906001900390816114ea5790505b50905060005b8251811015611449576003600084838151811061154f5761154f611f5a565b602002602001015181526020019081526020016000206040518060600160405290816000820160009054906101000a90046001600160a01b03166001600160a01b03166001600160a01b031681526020016001820180546115af90611f26565b80601f01602080910402602001604051908101604052809291908181526020018280546115db90611f26565b80156116285780601f106115fd57610100808354040283529160200191611628565b820191906000526020600020905b81548152906001019060200180831161160b57829003601f168201915b5050505050815260200160028201548152505082828151811061164d5761164d611f5a565b6020026020010181905250808061166390611ed6565b915050611530565b600360205260009081526040902080546001820180546001600160a01b03909216929161169790611f26565b80601f01602080910402602001604051908101604052809291908181526020018280546116c390611f26565b80156117105780601f106116e557610100808354040283529160200191611710565b820191906000526020600020905b8154815290600101906020018083116116f357829003601f168201915b5050505050908060020154905083565b600580546000918261173183611ed6565b9190505550600554905090565b82805461174a90611f26565b90600052602060002090601f01602090048101928261176c57600085556117b2565b82601f1061178557805160ff19168380011785556117b2565b828001600101855582156117b2579182015b828111156117b2578251825591602001919060010190611797565b506117be9291506117fc565b5090565b8280548282559060005260206000209081019282156117b257916020028201828111156117b2578251825591602001919060010190611797565b5b808211156117be57600081556001016117fd565b634e487b7160e01b600052604160045260246000fd5b600082601f83011261183857600080fd5b813567ffffffffffffffff8082111561185357611853611811565b604051601f8301601f19908116603f0116810190828211818310171561187b5761187b611811565b8160405283815286602085880101111561189457600080fd5b836020870160208301376000602085830101528094505050505092915050565b80356001600160a01b03811681146118cb57600080fd5b919050565b803580151581146118cb57600080fd5b600080600080600080600060e0888a0312156118fb57600080fd5b873567ffffffffffffffff8082111561191357600080fd5b61191f8b838c01611827565b985061192d60208b016118b4565b975060408a013591508082111561194357600080fd5b61194f8b838c01611827565b965061195d60608b016118b4565b955060808a013591508082111561197357600080fd5b506119808a828b01611827565b93505060a0880135915061199660c089016118d0565b905092959891949750929550565b600080604083850312156119b757600080fd5b82359150602083013567ffffffffffffffff8111156119d557600080fd5b6119e185828601611827565b9150509250929050565b600080604083850312156119fe57600080fd5b82359150611a0e602084016118d0565b90509250929050565b600080600060608486031215611a2c57600080fd5b83359250611a3c602085016118b4565b9150604084013567ffffffffffffffff811115611a5857600080fd5b611a6486828701611827565b9150509250925092565b600060208284031215611a8057600080fd5b5035919050565b6000815180845260005b81811015611aad57602081850181015186830182015201611a91565b81811115611abf576000602083870101525b50601f01601f19169290920160200192915050565b60006101208b8352806020840152611aee8184018c611a87565b6001600160a01b038b811660408601528482036060860152909150611b13828b611a87565b908916608085015283810360a08501529050611b2f8188611a87565b60c0840196909652505060e08101929092521515610100909101529695505050505050565b60008060408385031215611b6757600080fd5b50508035926020909101359150565b838152826020820152606060408201526000611b956060830184611a87565b95945050505050565b600080600060608486031215611bb357600080fd5b8335925060208401359150604084013567ffffffffffffffff811115611a5857600080fd5b600081518084526020808501945080840160005b83811015611c0857815187529582019590820190600101611bec565b509495945050505050565b60006020808301818452808551808352604092508286019150828160051b87010184880160005b83811015611d4e57603f1989840301855281516101608151855288820151818a870152611c6982870182611a87565b91505087820151611c84898701826001600160a01b03169052565b5060608083015186830382880152611c9c8382611a87565b92505050608080830151611cba828801826001600160a01b03169052565b505060a08083015186830382880152611cd38382611a87565b9250505060c080830151818701525060e080830151818701525061010080830151611d018288018215159052565b50506101208083015186830382880152611d1b8382611bd8565b925050506101408083015192508582038187015250611d3a8183611bd8565b968901969450505090860190600101611c3a565b509098975050505050505050565b60006020808301818452808551808352604092508286019150828160051b87010184880160005b83811015611d4e57888303603f1901855281518051845287810151888501528601516060878501819052611db981860183611a87565b968901969450505090860190600101611d83565b60006020808301818452808551808352604092508286019150828160051b87010184880160005b83811015611d4e57888303603f19018552815180516001600160a01b0316845287810151606089860181905290611e2d82870182611a87565b92890151958901959095525094870194925090860190600101611df4565b6001600160a01b0384168152606060208201819052600090611e6f90830185611a87565b9050826040830152949350505050565b634e487b7160e01b600052601160045260246000fd5b6000816000190483118215151615611eaf57611eaf611e7f565b500290565b600082611ed157634e487b7160e01b600052601260045260246000fd5b500490565b600060018201611ee857611ee8611e7f565b5060010190565b6020808252601a908201527f50726f6475637420494420646f6573206e6f742065786973742e000000000000604082015260600190565b600181811c90821680611f3a57607f821691505b60208210810361125157634e487b7160e01b600052602260045260246000fd5b634e487b7160e01b600052603260045260246000fdfea2646970667358221220ff9816404400d414ab69382040a921a7e39421f39aa5a648543bb78a7266e9da64736f6c634300080d0033",
  "immutableReferences": {},
  "source": "// Last modified by Matteo Griso on 08/08/2024\n\n// SPDX-License-Identifier: MIT\npragma solidity ^0.8.0;\n// import \"@openzeppelin/contracts/access/Ownable.sol\";\n\n\ncontract SupplyChainTracker /*is Ownable*/ {\n\n    address public owner;\n    uint256 public productCount;\n\n    mapping(uint256 => Product) public products;\n    mapping(uint256 => OwnershipEvent) public ownershipEvents;\n    mapping(uint256 => SensorData) public sensorData;\n\n    constructor() {\n        owner = msg.sender;\n        productCount = 0;\n    }\n\n/*    function transferContractOwnership(address newOwner) public onlyOwner {\n        owner = newOwner;\n    }*/\n\n    // This function allows me (the owner of the contract, to withdraw funds)\n/*    function withdrawFunds() public onlyOwner {\n        uint balance = address(this).balance;\n        payable(owner).transfer(balance);\n}*/\n\n    struct Product {\n        uint256 id;\n        string name;\n        address manufacturer;\n        string serialNumber;\n        address currentOwner;\n        string currentLocation;\n        uint256 timestamp;\n        uint256 price;\n        bool isForSale;\n        uint[] ownershipEventIds;\n        uint[] sensorEventIds;\n    }\n\n    struct OwnershipEvent {\n        address newOwner;\n        string newLocation;\n        uint256 timestamp;\n    }\n\n    struct SensorData {\n        uint timestamp;\n        uint temperature; // Esempio di dato sensoriale\n        string location; // Esempio di dato sensoriale\n    }\n\n    function addProduct (\n        string memory _name,\n        address _manufacturer,\n        string memory _serialNumber,\n        address _initialOwner,\n        string memory _initialLocation,\n        uint256 _price,\n        bool _isForSale\n    ) public payable {\n        require(msg.sender == _manufacturer, \"Only manufacturer can add products\");\n        require(msg.value >= (_price * 10) / 100, \"Insufficient fee\");\n\n        products[productCount] = Product({\n            id: productCount,\n            name: _name,\n            manufacturer: _manufacturer,\n            serialNumber: _serialNumber,\n            currentOwner: _initialOwner,\n            currentLocation: _initialLocation,\n            timestamp: block.timestamp,\n            ownershipEventIds: new uint[](0),\n            sensorEventIds: new uint[](0),\n            price: _price,\n            isForSale: _isForSale\n        });\n\n        productCount++;\n    }\n\n  function updateLocation(uint256 _productId, string memory _newLocation) public {\n    require(_productId < productCount, \"Product ID does not exist.\"); \n    require(msg.sender == products[_productId].currentOwner, \"Only the current owner can update the location.\"); \n    products[_productId].currentLocation = _newLocation; \n  }\n\n  function updatePrice(uint256 _productId, uint256 _newPrice) public {\n    require(_productId < productCount, \"Product ID does not exist.\"); \n    require(msg.sender == products[_productId].currentOwner, \"Only the current owner can update the price.\"); \n    products[_productId].price = _newPrice;\n  }\n\n    function updateIsForSale(uint256 _productId, bool _isForSale) public {\n    require(_productId < productCount, \"Product ID does not exist.\"); \n    require(msg.sender == products[_productId].currentOwner, \"Only the current owner can update the isForSale flag.\"); \n    products[_productId].isForSale = _isForSale; \n  }\n\nfunction transferOwnership(uint256 _productId, address _newOwner, string memory _newLocation) public payable {\n    // 1. Check if the product exists\n    require(_productId < productCount, \"Product ID does not exist.\"); \n\n    // 2. Check if the sender is the current owner\n    require(msg.sender != products[_productId].currentOwner, \"Current owner can't buy a from product from himself\");\n\n    // 3. Check if the product is actually for sale \n    require(products[_productId].isForSale, \"This product is not currently for sale.\");\n\n    // 4. Check if the sent value meets or exceeds the product's price\n    require(msg.value >= products[_productId].price, \"Insufficient payment.\");\n\n    // Update product state (if all checks pass)\n    // products[_productId].price = msg.value;\n    products[_productId].currentOwner = _newOwner;\n    products[_productId].currentLocation = _newLocation;\n\n    // Transfer Ether to the previous owner\n    payable(products[_productId].currentOwner).transfer(msg.value); \n\n    // Log the ownership transfer event \n    uint eventId = generateEventId();\n    ownershipEvents[eventId] = OwnershipEvent(_newOwner, _newLocation, block.timestamp);\n    products[_productId].ownershipEventIds.push(eventId);\n}\n\n\n    // Funzione per generare un ID evento univoco\n    uint private eventIdCounter;\n    function generateEventId() private returns (uint) {\n        eventIdCounter++;\n        return eventIdCounter;\n    }\n\n    // Funzione per ottenere la storia degli eventi di un prodotto\n    function getOwnershipHistory(uint256 _productId) public view returns (OwnershipEvent[] memory) {\n        uint[] memory eventIds = products[_productId].ownershipEventIds;\n        OwnershipEvent[] memory history = new OwnershipEvent[](eventIds.length);\n\n        for (uint i = 0; i < eventIds.length; i++) {\n            history[i] = ownershipEvents[eventIds[i]];\n        }\n\n        return history;\n    }\n\n    // Funzione per ottenere l'elenco dei prodotti\n    function getProducts() public view returns (Product[] memory) {\n        Product[] memory history = new Product[](productCount);\n\n        for (uint i = 0; i < productCount; i++) {\n            history[i] = products[i];\n        }\n\n        return history;\n    }\n\n    // Funzione per registrare i dati dei sensori\n    function recordSensorData(uint _productId, uint _temperature, string memory _location) public {\n        require(msg.sender == products[_productId].currentOwner, \"Only the current owner can record sensor data\");\n\n        uint eventId = generateEventId();\n        sensorData[eventId] = SensorData(block.timestamp, _temperature, _location);\n        products[_productId].sensorEventIds.push(eventId);\n    }\n\n    // Funzione per ottenere i dati dei sensori di un prodotto\n    function getSensorData(uint _productId) public view returns (SensorData[] memory) {\n        uint[] memory eventIds = products[_productId].sensorEventIds;\n        SensorData[] memory data = new SensorData[](eventIds.length);\n\n        for (uint i = 0; i < eventIds.length; i++) {\n            uint index = eventIds[i];\n            data[i] = sensorData[index];\n        }\n\n        return data;\n    }\n}\n\n",
  "sourcePath": "/home/matteo/ChainSync/ChainSync/contracts/SupplyChainTracker.sol",
  "compiler": {
    "name": "solc",
    "version": "0.8.13+commit.abaa5c0e.Emscripten.clang"
  },
  "schemaVersion": "3.4.16",
  "updatedAt": "2024-11-24T15:51:38.679Z",
  "networkType": "ethereum",
  "devdoc": {
    "kind": "dev",
    "methods": {},
    "version": 1
  },
  "userdoc": {
    "kind": "user",
    "methods": {},
    "version": 1
  }
}