{
  "contractName": "SupplyChainTracker",
  "abi": [
    {
      "inputs": [],
      "stateMutability": "nonpayable",
      "type": "constructor"
    },
    {
      "inputs": [
        {
          "internalType": "uint256",
          "name": "",
          "type": "uint256"
        }
      ],
      "name": "ownershipEvents",
      "outputs": [
        {
          "internalType": "address",
          "name": "newOwner",
          "type": "address"
        },
        {
          "internalType": "string",
          "name": "newLocation",
          "type": "string"
        },
        {
          "internalType": "uint256",
          "name": "timestamp",
          "type": "uint256"
        }
      ],
      "stateMutability": "view",
      "type": "function"
    },
    {
      "inputs": [],
      "name": "productCount",
      "outputs": [
        {
          "internalType": "uint256",
          "name": "",
          "type": "uint256"
        }
      ],
      "stateMutability": "view",
      "type": "function"
    },
    {
      "inputs": [
        {
          "internalType": "uint256",
          "name": "",
          "type": "uint256"
        }
      ],
      "name": "products",
      "outputs": [
        {
          "internalType": "uint256",
          "name": "id",
          "type": "uint256"
        },
        {
          "internalType": "string",
          "name": "name",
          "type": "string"
        },
        {
          "internalType": "address",
          "name": "manufacturer",
          "type": "address"
        },
        {
          "internalType": "string",
          "name": "serialNumber",
          "type": "string"
        },
        {
          "internalType": "address",
          "name": "currentOwner",
          "type": "address"
        },
        {
          "internalType": "string",
          "name": "currentLocation",
          "type": "string"
        },
        {
          "internalType": "uint256",
          "name": "timestamp",
          "type": "uint256"
        }
      ],
      "stateMutability": "view",
      "type": "function"
    },
    {
      "inputs": [
        {
          "internalType": "uint256",
          "name": "",
          "type": "uint256"
        }
      ],
      "name": "sensorData",
      "outputs": [
        {
          "internalType": "uint256",
          "name": "timestamp",
          "type": "uint256"
        },
        {
          "internalType": "uint256",
          "name": "temperature",
          "type": "uint256"
        },
        {
          "internalType": "string",
          "name": "location",
          "type": "string"
        }
      ],
      "stateMutability": "view",
      "type": "function"
    },
    {
      "inputs": [
        {
          "internalType": "string",
          "name": "_name",
          "type": "string"
        },
        {
          "internalType": "address",
          "name": "_manufacturer",
          "type": "address"
        },
        {
          "internalType": "string",
          "name": "_serialNumber",
          "type": "string"
        },
        {
          "internalType": "address",
          "name": "_initialOwner",
          "type": "address"
        },
        {
          "internalType": "string",
          "name": "_initialLocation",
          "type": "string"
        }
      ],
      "name": "addProduct",
      "outputs": [],
      "stateMutability": "nonpayable",
      "type": "function"
    },
    {
      "inputs": [
        {
          "internalType": "uint256",
          "name": "_productId",
          "type": "uint256"
        },
        {
          "internalType": "address",
          "name": "_newOwner",
          "type": "address"
        },
        {
          "internalType": "string",
          "name": "_newLocation",
          "type": "string"
        },
        {
          "internalType": "uint256",
          "name": "_transferFee",
          "type": "uint256"
        }
      ],
      "name": "transferOwnership",
      "outputs": [],
      "stateMutability": "payable",
      "type": "function"
    },
    {
      "inputs": [
        {
          "internalType": "uint256",
          "name": "_productId",
          "type": "uint256"
        }
      ],
      "name": "getOwnershipHistory",
      "outputs": [
        {
          "components": [
            {
              "internalType": "address",
              "name": "newOwner",
              "type": "address"
            },
            {
              "internalType": "string",
              "name": "newLocation",
              "type": "string"
            },
            {
              "internalType": "uint256",
              "name": "timestamp",
              "type": "uint256"
            }
          ],
          "internalType": "struct SupplyChainTracker.OwnershipEvent[]",
          "name": "",
          "type": "tuple[]"
        }
      ],
      "stateMutability": "view",
      "type": "function"
    },
    {
      "inputs": [],
      "name": "getProducts",
      "outputs": [
        {
          "components": [
            {
              "internalType": "uint256",
              "name": "id",
              "type": "uint256"
            },
            {
              "internalType": "string",
              "name": "name",
              "type": "string"
            },
            {
              "internalType": "address",
              "name": "manufacturer",
              "type": "address"
            },
            {
              "internalType": "string",
              "name": "serialNumber",
              "type": "string"
            },
            {
              "internalType": "address",
              "name": "currentOwner",
              "type": "address"
            },
            {
              "internalType": "string",
              "name": "currentLocation",
              "type": "string"
            },
            {
              "internalType": "uint256",
              "name": "timestamp",
              "type": "uint256"
            },
            {
              "internalType": "uint256[]",
              "name": "ownershipEventIds",
              "type": "uint256[]"
            },
            {
              "internalType": "uint256[]",
              "name": "sensorEventIds",
              "type": "uint256[]"
            }
          ],
          "internalType": "struct SupplyChainTracker.Product[]",
          "name": "",
          "type": "tuple[]"
        }
      ],
      "stateMutability": "view",
      "type": "function"
    },
    {
      "inputs": [
        {
          "internalType": "uint256",
          "name": "_productId",
          "type": "uint256"
        },
        {
          "internalType": "uint256",
          "name": "_temperature",
          "type": "uint256"
        },
        {
          "internalType": "string",
          "name": "_location",
          "type": "string"
        }
      ],
      "name": "recordSensorData",
      "outputs": [],
      "stateMutability": "nonpayable",
      "type": "function"
    },
    {
      "inputs": [
        {
          "internalType": "uint256",
          "name": "_productId",
          "type": "uint256"
        }
      ],
      "name": "getSensorData",
      "outputs": [
        {
          "components": [
            {
              "internalType": "uint256",
              "name": "timestamp",
              "type": "uint256"
            },
            {
              "internalType": "uint256",
              "name": "temperature",
              "type": "uint256"
            },
            {
              "internalType": "string",
              "name": "location",
              "type": "string"
            }
          ],
          "internalType": "struct SupplyChainTracker.SensorData[]",
          "name": "",
          "type": "tuple[]"
        }
      ],
      "stateMutability": "view",
      "type": "function"
    }
  ],
  "bytecode": "0x608060405234801561001057600080fd5b5060008055611a00806100246000396000f3fe6080604052600436106100915760003560e01c8063c29b2f2011610059578063c29b2f2014610156578063e0f6ef8714610178578063ed044aa31461019c578063f1dbaccb146101c9578063fe04d06f146101f657600080fd5b80636a704a59146100965780637acc0b20146100ab578063ab562a1d146100e7578063baabdc2214610116578063bf8a53bd14610136575b600080fd5b6100a96100a4366004611481565b610225565b005b3480156100b757600080fd5b506100cb6100c63660046114e0565b61047f565b6040516100de9796959493929190611546565b60405180910390f35b3480156100f357600080fd5b506101076101023660046114e0565b61066f565b6040516100de939291906115b2565b34801561012257600080fd5b506100a96101313660046115da565b61071a565b34801561014257600080fd5b506100a961015136600461162a565b61081c565b34801561016257600080fd5b5061016b610a52565b6040516100de919061170f565b34801561018457600080fd5b5061018e60005481565b6040519081526020016100de565b3480156101a857600080fd5b506101bc6101b73660046114e0565b610e08565b6040516100de9190611836565b3480156101d557600080fd5b506101e96101e43660046114e0565b611002565b6040516100de91906118a7565b34801561020257600080fd5b506102166102113660046114e0565b61121c565b6040516100de93929190611925565b6000848152600160205260409020600401546001600160a01b031633146102a95760405162461bcd60e51b815260206004820152602d60248201527f4f6e6c79207468652063757272656e74206f776e65722063616e207472616e7360448201526c0666572206f776e65727368697609c1b60648201526084015b60405180910390fd5b803410156102f05760405162461bcd60e51b8152602060048201526014602482015273125b9cdd59999a58da595b9d081c185e5b595b9d60621b60448201526064016102a0565b60008481526001602090815260409091206004810180546001600160a01b0319166001600160a01b0387161790558351610332926005909201918501906112ef565b506000848152600160205260408082206004015490516001600160a01b039091169034908381818185875af1925050503d806000811461038e576040519150601f19603f3d011682016040523d82523d6000602084013e610393565b606091505b50509050806103db5760405162461bcd60e51b81526020600482015260146024820152732330b4b632b2103a379039b2b7321022ba3432b960611b60448201526064016102a0565b60006103e56112d1565b604080516060810182526001600160a01b0388811682526020808301898152428486015260008681526002835294909420835181546001600160a01b031916931692909217825592518051949550919390926104489260018501929101906112ef565b5060409182015160029091015560009687526001602081815291882060070180549182018155885296209095019490945550505050565b6001602081905260009182526040909120805491810180546104a090611959565b80601f01602080910402602001604051908101604052809291908181526020018280546104cc90611959565b80156105195780601f106104ee57610100808354040283529160200191610519565b820191906000526020600020905b8154815290600101906020018083116104fc57829003601f168201915b505050600284015460038501805494956001600160a01b0390921694919350915061054390611959565b80601f016020809104026020016040519081016040528092919081815260200182805461056f90611959565b80156105bc5780601f10610591576101008083540402835291602001916105bc565b820191906000526020600020905b81548152906001019060200180831161059f57829003601f168201915b505050600484015460058501805494956001600160a01b039092169491935091506105e690611959565b80601f016020809104026020016040519081016040528092919081815260200182805461061290611959565b801561065f5780601f106106345761010080835404028352916020019161065f565b820191906000526020600020905b81548152906001019060200180831161064257829003601f168201915b5050505050908060060154905087565b6003602052600090815260409020805460018201546002830180549293919261069790611959565b80601f01602080910402602001604051908101604052809291908181526020018280546106c390611959565b80156107105780601f106106e557610100808354040283529160200191610710565b820191906000526020600020905b8154815290600101906020018083116106f357829003601f168201915b5050505050905083565b6000838152600160205260409020600401546001600160a01b031633146107995760405162461bcd60e51b815260206004820152602d60248201527f4f6e6c79207468652063757272656e74206f776e65722063616e207265636f7260448201526c642073656e736f72206461746160981b60648201526084016102a0565b60006107a36112d1565b6040805160608101825242815260208082018781528284018781526000868152600384529490942083518155905160018201559251805194955091936107ef92600285019201906112ef565b50505060009384526001602081815260408620600801805492830181558652909420909301929092555050565b336001600160a01b0385161461087f5760405162461bcd60e51b815260206004820152602260248201527f4f6e6c79206d616e7566616374757265722063616e206164642070726f647563604482015261747360f01b60648201526084016102a0565b6040518061012001604052806000548152602001868152602001856001600160a01b03168152602001848152602001836001600160a01b03168152602001828152602001428152602001600067ffffffffffffffff8111156108e3576108e36113de565b60405190808252806020026020018201604052801561090c578160200160208202803683370190505b508152602001600060405190808252806020026020018201604052801561093d578160200160208202803683370190505b50905260008054815260016020818152604090922083518155838301518051919361096d938501929101906112ef565b5060408201516002820180546001600160a01b0319166001600160a01b03909216919091179055606082015180516109af9160038401916020909101906112ef565b5060808201516004820180546001600160a01b0319166001600160a01b0390921691909117905560a082015180516109f19160058401916020909101906112ef565b5060c0820151600682015560e08201518051610a17916007840191602090910190611373565b506101008201518051610a34916008840191602090910190611373565b505060008054915080610a468361198d565b91905055505050505050565b60606000805467ffffffffffffffff811115610a7057610a706113de565b604051908082528060200260200182016040528015610b0257816020015b610aef604051806101200160405280600081526020016060815260200160006001600160a01b031681526020016060815260200160006001600160a01b03168152602001606081526020016000815260200160608152602001606081525090565b815260200190600190039081610a8e5790505b50905060005b600054811015610e02576000818152600160208181526040928390208351610120810190945280548452918201805491840191610b4490611959565b80601f0160208091040260200160405190810160405280929190818152602001828054610b7090611959565b8015610bbd5780601f10610b9257610100808354040283529160200191610bbd565b820191906000526020600020905b815481529060010190602001808311610ba057829003601f168201915b505050918352505060028201546001600160a01b03166020820152600382018054604090920191610bed90611959565b80601f0160208091040260200160405190810160405280929190818152602001828054610c1990611959565b8015610c665780601f10610c3b57610100808354040283529160200191610c66565b820191906000526020600020905b815481529060010190602001808311610c4957829003601f168201915b505050918352505060048201546001600160a01b03166020820152600582018054604090920191610c9690611959565b80601f0160208091040260200160405190810160405280929190818152602001828054610cc290611959565b8015610d0f5780601f10610ce457610100808354040283529160200191610d0f565b820191906000526020600020905b815481529060010190602001808311610cf257829003601f168201915b505050505081526020016006820154815260200160078201805480602002602001604051908101604052809291908181526020018280548015610d7157602002820191906000526020600020905b815481526020019060010190808311610d5d575b5050505050815260200160088201805480602002602001604051908101604052809291908181526020018280548015610dc957602002820191906000526020600020905b815481526020019060010190808311610db5575b505050505081525050828281518110610de457610de46119b4565b60200260200101819052508080610dfa9061198d565b915050610b08565b50919050565b6000818152600160209081526040808320600801805482518185028101850190935280835260609493830182828015610e6057602002820191906000526020600020905b815481526020019060010190808311610e4c575b505050505090506000815167ffffffffffffffff811115610e8357610e836113de565b604051908082528060200260200182016040528015610ed857816020015b610ec560405180606001604052806000815260200160008152602001606081525090565b815260200190600190039081610ea15790505b50905060005b8251811015610ffa576000838281518110610efb57610efb6119b4565b60200260200101519050600360008281526020019081526020016000206040518060600160405290816000820154815260200160018201548152602001600282018054610f4790611959565b80601f0160208091040260200160405190810160405280929190818152602001828054610f7390611959565b8015610fc05780601f10610f9557610100808354040283529160200191610fc0565b820191906000526020600020905b815481529060010190602001808311610fa357829003601f168201915b505050505081525050838381518110610fdb57610fdb6119b4565b6020026020010181905250508080610ff29061198d565b915050610ede565b509392505050565b600081815260016020908152604080832060070180548251818502810185019093528083526060949383018282801561105a57602002820191906000526020600020905b815481526020019060010190808311611046575b505050505090506000815167ffffffffffffffff81111561107d5761107d6113de565b6040519080825280602002602001820160405280156110db57816020015b6110c8604051806060016040528060006001600160a01b0316815260200160608152602001600081525090565b81526020019060019003908161109b5790505b50905060005b8251811015610ffa5760026000848381518110611100576111006119b4565b602002602001015181526020019081526020016000206040518060600160405290816000820160009054906101000a90046001600160a01b03166001600160a01b03166001600160a01b0316815260200160018201805461116090611959565b80601f016020809104026020016040519081016040528092919081815260200182805461118c90611959565b80156111d95780601f106111ae576101008083540402835291602001916111d9565b820191906000526020600020905b8154815290600101906020018083116111bc57829003601f168201915b505050505081526020016002820154815250508282815181106111fe576111fe6119b4565b602002602001018190525080806112149061198d565b9150506110e1565b600260205260009081526040902080546001820180546001600160a01b03909216929161124890611959565b80601f016020809104026020016040519081016040528092919081815260200182805461127490611959565b80156112c15780601f10611296576101008083540402835291602001916112c1565b820191906000526020600020905b8154815290600101906020018083116112a457829003601f168201915b5050505050908060020154905083565b60048054600091826112e28361198d565b9190505550600454905090565b8280546112fb90611959565b90600052602060002090601f01602090048101928261131d5760008555611363565b82601f1061133657805160ff1916838001178555611363565b82800160010185558215611363579182015b82811115611363578251825591602001919060010190611348565b5061136f9291506113ad565b5090565b8280548282559060005260206000209081019282156113635791602002820182811115611363578251825591602001919060010190611348565b5b8082111561136f57600081556001016113ae565b80356001600160a01b03811681146113d957600080fd5b919050565b634e487b7160e01b600052604160045260246000fd5b600082601f83011261140557600080fd5b813567ffffffffffffffff80821115611420576114206113de565b604051601f8301601f19908116603f01168101908282118183101715611448576114486113de565b8160405283815286602085880101111561146157600080fd5b836020870160208301376000602085830101528094505050505092915050565b6000806000806080858703121561149757600080fd5b843593506114a7602086016113c2565b9250604085013567ffffffffffffffff8111156114c357600080fd5b6114cf878288016113f4565b949793965093946060013593505050565b6000602082840312156114f257600080fd5b5035919050565b6000815180845260005b8181101561151f57602081850181015186830182015201611503565b81811115611531576000602083870101525b50601f01601f19169290920160200192915050565b87815260e06020820152600061155f60e08301896114f9565b6001600160a01b038881166040850152838203606085015261158182896114f9565b908716608085015283810360a0850152905061159d81866114f9565b9150508260c083015298975050505050505050565b8381528260208201526060604082015260006115d160608301846114f9565b95945050505050565b6000806000606084860312156115ef57600080fd5b8335925060208401359150604084013567ffffffffffffffff81111561161457600080fd5b611620868287016113f4565b9150509250925092565b600080600080600060a0868803121561164257600080fd5b853567ffffffffffffffff8082111561165a57600080fd5b61166689838a016113f4565b9650611674602089016113c2565b9550604088013591508082111561168a57600080fd5b61169689838a016113f4565b94506116a4606089016113c2565b935060808801359150808211156116ba57600080fd5b506116c7888289016113f4565b9150509295509295909350565b600081518084526020808501945080840160005b83811015611704578151875295820195908201906001016116e8565b509495945050505050565b60006020808301818452808551808352604092508286019150828160051b87010184880160005b8381101561182857603f1989840301855281516101208151855288820151818a870152611765828701826114f9565b91505087820151611780898701826001600160a01b03169052565b506060808301518683038288015261179883826114f9565b925050506080808301516117b6828801826001600160a01b03169052565b505060a080830151868303828801526117cf83826114f9565b9250505060c080830151818701525060e080830151868303828801526117f583826116d4565b92505050610100808301519250858203818701525061181481836116d4565b968901969450505090860190600101611736565b509098975050505050505050565b60006020808301818452808551808352604092508286019150828160051b87010184880160005b8381101561182857888303603f1901855281518051845287810151888501528601516060878501819052611893818601836114f9565b96890196945050509086019060010161185d565b60006020808301818452808551808352604092508286019150828160051b87010184880160005b8381101561182857888303603f19018552815180516001600160a01b0316845287810151606089860181905290611907828701826114f9565b928901519589019590955250948701949250908601906001016118ce565b6001600160a01b0384168152606060208201819052600090611949908301856114f9565b9050826040830152949350505050565b600181811c9082168061196d57607f821691505b602082108103610e0257634e487b7160e01b600052602260045260246000fd5b6000600182016119ad57634e487b7160e01b600052601160045260246000fd5b5060010190565b634e487b7160e01b600052603260045260246000fdfea264697066735822122063819570c1e19397e4c3fef43aac89759e520a5f5bcbae3e6b888c1fe48fef6064736f6c634300080d0033",
  "immutableReferences": {},
  "source": "// Last modified by Matteo Griso on 08/08/2024\n\n// SPDX-License-Identifier: MIT\npragma solidity ^0.8.0;\n\ncontract SupplyChainTracker {\n    uint256 public productCount;\n\n    mapping(uint256 => Product) public products;\n    mapping(uint256 => OwnershipEvent) public ownershipEvents;\n    mapping(uint256 => SensorData) public sensorData;\n\n    constructor() {\n        productCount = 0;\n    }\n\n    struct Product {\n        uint256 id;\n        string name;\n        address manufacturer;\n        string serialNumber;\n        address currentOwner;\n        string currentLocation;\n        uint256 timestamp;\n        uint[] ownershipEventIds;\n        uint[] sensorEventIds;\n    }\n\n    struct OwnershipEvent {\n        address newOwner;\n        string newLocation;\n        uint256 timestamp;\n    }\n\n    struct SensorData {\n        uint timestamp;\n        uint temperature; // Esempio di dato sensoriale\n        string location; // Esempio di dato sensoriale\n    }\n\n    function addProduct(\n        string memory _name,\n        address _manufacturer,\n        string memory _serialNumber,\n        address _initialOwner,\n        string memory _initialLocation\n    ) public {\n        require(msg.sender == _manufacturer, \"Only manufacturer can add products\");\n\n        products[productCount] = Product({\n            id: productCount,\n            name: _name,\n            manufacturer: _manufacturer,\n            serialNumber: _serialNumber,\n            currentOwner: _initialOwner,\n            currentLocation: _initialLocation,\n            timestamp: block.timestamp,\n            ownershipEventIds: new uint[](0),\n            sensorEventIds: new uint[](0)\n        });\n\n        productCount++;\n    }\n\n\n// Next update: generate an ESCROW contract\nfunction transferOwnership(uint256 _productId, address _newOwner, string memory _newLocation, uint256 _transferFee) public payable {\n    require(msg.sender == products[_productId].currentOwner, \"Only the current owner can transfer ownership\");\n    require(msg.value >= _transferFee, \"Insufficient payment\");\n\n    products[_productId].currentOwner = _newOwner;\n    products[_productId].currentLocation = _newLocation;\n\n    // Assuming transferFee is a constant defined elsewhere\n    (bool sent, ) = payable(products[_productId].currentOwner).call{value: msg.value}(\"\");\n    require(sent, \"Failed to send Ether\");\n\n    uint eventId = generateEventId();\n    ownershipEvents[eventId] = OwnershipEvent(_newOwner, _newLocation, block.timestamp);\n    products[_productId].ownershipEventIds.push(eventId);\n}\n\n\n    // Funzione per generare un ID evento univoco\n    uint private eventIdCounter;\n    function generateEventId() private returns (uint) {\n        eventIdCounter++;\n        return eventIdCounter;\n    }\n\n    // Funzione per ottenere la storia degli eventi di un prodotto\n    function getOwnershipHistory(uint256 _productId) public view returns (OwnershipEvent[] memory) {\n        uint[] memory eventIds = products[_productId].ownershipEventIds;\n        OwnershipEvent[] memory history = new OwnershipEvent[](eventIds.length);\n\n        for (uint i = 0; i < eventIds.length; i++) {\n            history[i] = ownershipEvents[eventIds[i]];\n        }\n\n        return history;\n    }\n\n    // Funzione per ottenere l'elenco dei prodotti\n    function getProducts() public view returns (Product[] memory) {\n        Product[] memory history = new Product[](productCount);\n\n        for (uint i = 0; i < productCount; i++) {\n            history[i] = products[i];\n        }\n\n        return history;\n    }\n\n    // Funzione per registrare i dati dei sensori\n    function recordSensorData(uint _productId, uint _temperature, string memory _location) public {\n        require(msg.sender == products[_productId].currentOwner, \"Only the current owner can record sensor data\");\n\n        uint eventId = generateEventId();\n        sensorData[eventId] = SensorData(block.timestamp, _temperature, _location);\n        products[_productId].sensorEventIds.push(eventId);\n    }\n\n    // Funzione per ottenere i dati dei sensori di un prodotto\n    function getSensorData(uint _productId) public view returns (SensorData[] memory) {\n        uint[] memory eventIds = products[_productId].sensorEventIds;\n        SensorData[] memory data = new SensorData[](eventIds.length);\n\n        for (uint i = 0; i < eventIds.length; i++) {\n            uint index = eventIds[i];\n            data[i] = sensorData[index];\n        }\n\n        return data;\n    }\n}\n\n",
  "sourcePath": "/home/matteo/ChainSync/ChainSync/contracts/SupplyChainTracker.sol",
  "compiler": {
    "name": "solc",
    "version": "0.8.13+commit.abaa5c0e.Emscripten.clang"
  },
  "schemaVersion": "3.4.16",
  "updatedAt": "2024-08-07T19:29:07.533Z",
  "devdoc": {
    "kind": "dev",
    "methods": {},
    "version": 1
  },
  "userdoc": {
    "kind": "user",
    "methods": {},
    "version": 1
  }
}