{
  "contractName": "SupplyChainTracker",
  "abi": [
    {
      "inputs": [],
      "stateMutability": "nonpayable",
      "type": "constructor"
    },
    {
      "inputs": [
        {
          "internalType": "uint256",
          "name": "",
          "type": "uint256"
        }
      ],
      "name": "ownershipEvents",
      "outputs": [
        {
          "internalType": "address",
          "name": "newOwner",
          "type": "address"
        },
        {
          "internalType": "string",
          "name": "newLocation",
          "type": "string"
        },
        {
          "internalType": "uint256",
          "name": "timestamp",
          "type": "uint256"
        }
      ],
      "stateMutability": "view",
      "type": "function",
      "constant": true
    },
    {
      "inputs": [],
      "name": "productCount",
      "outputs": [
        {
          "internalType": "uint256",
          "name": "",
          "type": "uint256"
        }
      ],
      "stateMutability": "view",
      "type": "function",
      "constant": true
    },
    {
      "inputs": [
        {
          "internalType": "uint256",
          "name": "",
          "type": "uint256"
        }
      ],
      "name": "products",
      "outputs": [
        {
          "internalType": "uint256",
          "name": "id",
          "type": "uint256"
        },
        {
          "internalType": "string",
          "name": "name",
          "type": "string"
        },
        {
          "internalType": "address",
          "name": "manufacturer",
          "type": "address"
        },
        {
          "internalType": "string",
          "name": "serialNumber",
          "type": "string"
        },
        {
          "internalType": "address",
          "name": "currentOwner",
          "type": "address"
        },
        {
          "internalType": "string",
          "name": "currentLocation",
          "type": "string"
        },
        {
          "internalType": "uint256",
          "name": "timestamp",
          "type": "uint256"
        }
      ],
      "stateMutability": "view",
      "type": "function",
      "constant": true
    },
    {
      "inputs": [
        {
          "internalType": "uint256",
          "name": "",
          "type": "uint256"
        }
      ],
      "name": "sensorData",
      "outputs": [
        {
          "internalType": "uint256",
          "name": "timestamp",
          "type": "uint256"
        },
        {
          "internalType": "uint256",
          "name": "temperature",
          "type": "uint256"
        },
        {
          "internalType": "string",
          "name": "location",
          "type": "string"
        }
      ],
      "stateMutability": "view",
      "type": "function",
      "constant": true
    },
    {
      "inputs": [
        {
          "internalType": "string",
          "name": "_name",
          "type": "string"
        },
        {
          "internalType": "address",
          "name": "_manufacturer",
          "type": "address"
        },
        {
          "internalType": "string",
          "name": "_serialNumber",
          "type": "string"
        },
        {
          "internalType": "address",
          "name": "_initialOwner",
          "type": "address"
        },
        {
          "internalType": "string",
          "name": "_initialLocation",
          "type": "string"
        }
      ],
      "name": "addProduct",
      "outputs": [],
      "stateMutability": "nonpayable",
      "type": "function"
    },
    {
      "inputs": [
        {
          "internalType": "uint256",
          "name": "_productId",
          "type": "uint256"
        },
        {
          "internalType": "address",
          "name": "_newOwner",
          "type": "address"
        },
        {
          "internalType": "string",
          "name": "_newLocation",
          "type": "string"
        }
      ],
      "name": "transferOwnership",
      "outputs": [],
      "stateMutability": "nonpayable",
      "type": "function"
    },
    {
      "inputs": [
        {
          "internalType": "uint256",
          "name": "_productId",
          "type": "uint256"
        }
      ],
      "name": "getOwnershipHistory",
      "outputs": [
        {
          "components": [
            {
              "internalType": "address",
              "name": "newOwner",
              "type": "address"
            },
            {
              "internalType": "string",
              "name": "newLocation",
              "type": "string"
            },
            {
              "internalType": "uint256",
              "name": "timestamp",
              "type": "uint256"
            }
          ],
          "internalType": "struct SupplyChainTracker.OwnershipEvent[]",
          "name": "",
          "type": "tuple[]"
        }
      ],
      "stateMutability": "view",
      "type": "function",
      "constant": true
    },
    {
      "inputs": [],
      "name": "getProducts",
      "outputs": [
        {
          "components": [
            {
              "internalType": "uint256",
              "name": "id",
              "type": "uint256"
            },
            {
              "internalType": "string",
              "name": "name",
              "type": "string"
            },
            {
              "internalType": "address",
              "name": "manufacturer",
              "type": "address"
            },
            {
              "internalType": "string",
              "name": "serialNumber",
              "type": "string"
            },
            {
              "internalType": "address",
              "name": "currentOwner",
              "type": "address"
            },
            {
              "internalType": "string",
              "name": "currentLocation",
              "type": "string"
            },
            {
              "internalType": "uint256",
              "name": "timestamp",
              "type": "uint256"
            },
            {
              "internalType": "uint256[]",
              "name": "ownershipEventIds",
              "type": "uint256[]"
            },
            {
              "internalType": "uint256[]",
              "name": "sensorEventIds",
              "type": "uint256[]"
            }
          ],
          "internalType": "struct SupplyChainTracker.Product[]",
          "name": "",
          "type": "tuple[]"
        }
      ],
      "stateMutability": "view",
      "type": "function",
      "constant": true
    },
    {
      "inputs": [
        {
          "internalType": "uint256",
          "name": "_productId",
          "type": "uint256"
        },
        {
          "internalType": "uint256",
          "name": "_temperature",
          "type": "uint256"
        },
        {
          "internalType": "string",
          "name": "_location",
          "type": "string"
        }
      ],
      "name": "recordSensorData",
      "outputs": [],
      "stateMutability": "nonpayable",
      "type": "function"
    },
    {
      "inputs": [
        {
          "internalType": "uint256",
          "name": "_productId",
          "type": "uint256"
        }
      ],
      "name": "getSensorData",
      "outputs": [
        {
          "components": [
            {
              "internalType": "uint256",
              "name": "timestamp",
              "type": "uint256"
            },
            {
              "internalType": "uint256",
              "name": "temperature",
              "type": "uint256"
            },
            {
              "internalType": "string",
              "name": "location",
              "type": "string"
            }
          ],
          "internalType": "struct SupplyChainTracker.SensorData[]",
          "name": "",
          "type": "tuple[]"
        }
      ],
      "stateMutability": "view",
      "type": "function",
      "constant": true
    }
  ],
  "bytecode": "0x608060405234801561001057600080fd5b5060008055611889806100246000396000f3fe608060405234801561001057600080fd5b506004361061009e5760003560e01c8063c29b2f2011610066578063c29b2f201461012f578063e0f6ef8714610144578063ed044aa31461015b578063f1dbaccb1461017b578063fe04d06f1461019b57600080fd5b806371625641146100a35780637acc0b20146100b8578063ab562a1d146100e7578063baabdc2214610109578063bf8a53bd1461011c575b600080fd5b6100b66100b1366004611328565b6101bd565b005b6100cb6100c636600461137f565b610326565b6040516100de97969594939291906113e5565b60405180910390f35b6100fa6100f536600461137f565b610516565b6040516100de93929190611451565b6100b6610117366004611479565b6105c1565b6100b661012a3660046114b3565b6106c3565b6101376108f9565b6040516100de9190611598565b61014d60005481565b6040519081526020016100de565b61016e61016936600461137f565b610caf565b6040516100de91906116bf565b61018e61018936600461137f565b610ea9565b6040516100de9190611730565b6101ae6101a936600461137f565b6110c3565b6040516100de939291906117ae565b6000838152600160205260409020600401546001600160a01b031633146102415760405162461bcd60e51b815260206004820152602d60248201527f4f6e6c79207468652063757272656e74206f776e65722063616e207472616e7360448201526c0666572206f776e65727368697609c1b60648201526084015b60405180910390fd5b60008381526001602090815260409091206004810180546001600160a01b0319166001600160a01b038616179055825161028392600590920191840190611196565b50600061028e611178565b604080516060810182526001600160a01b0386811682526020808301878152428486015260008681526002835294909420835181546001600160a01b031916931692909217825592518051949550919390926102f1926001850192910190611196565b506040918201516002909101556000948552600160208181529186206007018054918201815586529420909301929092555050565b600160208190526000918252604090912080549181018054610347906117e2565b80601f0160208091040260200160405190810160405280929190818152602001828054610373906117e2565b80156103c05780601f10610395576101008083540402835291602001916103c0565b820191906000526020600020905b8154815290600101906020018083116103a357829003601f168201915b505050600284015460038501805494956001600160a01b039092169491935091506103ea906117e2565b80601f0160208091040260200160405190810160405280929190818152602001828054610416906117e2565b80156104635780601f1061043857610100808354040283529160200191610463565b820191906000526020600020905b81548152906001019060200180831161044657829003601f168201915b505050600484015460058501805494956001600160a01b0390921694919350915061048d906117e2565b80601f01602080910402602001604051908101604052809291908181526020018280546104b9906117e2565b80156105065780601f106104db57610100808354040283529160200191610506565b820191906000526020600020905b8154815290600101906020018083116104e957829003601f168201915b5050505050908060060154905087565b6003602052600090815260409020805460018201546002830180549293919261053e906117e2565b80601f016020809104026020016040519081016040528092919081815260200182805461056a906117e2565b80156105b75780601f1061058c576101008083540402835291602001916105b7565b820191906000526020600020905b81548152906001019060200180831161059a57829003601f168201915b5050505050905083565b6000838152600160205260409020600401546001600160a01b031633146106405760405162461bcd60e51b815260206004820152602d60248201527f4f6e6c79207468652063757272656e74206f776e65722063616e207265636f7260448201526c642073656e736f72206461746160981b6064820152608401610238565b600061064a611178565b6040805160608101825242815260208082018781528284018781526000868152600384529490942083518155905160018201559251805194955091936106969260028501920190611196565b50505060009384526001602081815260408620600801805492830181558652909420909301929092555050565b336001600160a01b038516146107265760405162461bcd60e51b815260206004820152602260248201527f4f6e6c79206d616e7566616374757265722063616e206164642070726f647563604482015261747360f01b6064820152608401610238565b6040518061012001604052806000548152602001868152602001856001600160a01b03168152602001848152602001836001600160a01b03168152602001828152602001428152602001600067ffffffffffffffff81111561078a5761078a611285565b6040519080825280602002602001820160405280156107b3578160200160208202803683370190505b50815260200160006040519080825280602002602001820160405280156107e4578160200160208202803683370190505b50905260008054815260016020818152604090922083518155838301518051919361081493850192910190611196565b5060408201516002820180546001600160a01b0319166001600160a01b0390921691909117905560608201518051610856916003840191602090910190611196565b5060808201516004820180546001600160a01b0319166001600160a01b0390921691909117905560a08201518051610898916005840191602090910190611196565b5060c0820151600682015560e082015180516108be91600784019160209091019061121a565b5061010082015180516108db91600884019160209091019061121a565b5050600080549150806108ed83611816565b91905055505050505050565b60606000805467ffffffffffffffff81111561091757610917611285565b6040519080825280602002602001820160405280156109a957816020015b610996604051806101200160405280600081526020016060815260200160006001600160a01b031681526020016060815260200160006001600160a01b03168152602001606081526020016000815260200160608152602001606081525090565b8152602001906001900390816109355790505b50905060005b600054811015610ca95760008181526001602081815260409283902083516101208101909452805484529182018054918401916109eb906117e2565b80601f0160208091040260200160405190810160405280929190818152602001828054610a17906117e2565b8015610a645780601f10610a3957610100808354040283529160200191610a64565b820191906000526020600020905b815481529060010190602001808311610a4757829003601f168201915b505050918352505060028201546001600160a01b03166020820152600382018054604090920191610a94906117e2565b80601f0160208091040260200160405190810160405280929190818152602001828054610ac0906117e2565b8015610b0d5780601f10610ae257610100808354040283529160200191610b0d565b820191906000526020600020905b815481529060010190602001808311610af057829003601f168201915b505050918352505060048201546001600160a01b03166020820152600582018054604090920191610b3d906117e2565b80601f0160208091040260200160405190810160405280929190818152602001828054610b69906117e2565b8015610bb65780601f10610b8b57610100808354040283529160200191610bb6565b820191906000526020600020905b815481529060010190602001808311610b9957829003601f168201915b505050505081526020016006820154815260200160078201805480602002602001604051908101604052809291908181526020018280548015610c1857602002820191906000526020600020905b815481526020019060010190808311610c04575b5050505050815260200160088201805480602002602001604051908101604052809291908181526020018280548015610c7057602002820191906000526020600020905b815481526020019060010190808311610c5c575b505050505081525050828281518110610c8b57610c8b61183d565b60200260200101819052508080610ca190611816565b9150506109af565b50919050565b6000818152600160209081526040808320600801805482518185028101850190935280835260609493830182828015610d0757602002820191906000526020600020905b815481526020019060010190808311610cf3575b505050505090506000815167ffffffffffffffff811115610d2a57610d2a611285565b604051908082528060200260200182016040528015610d7f57816020015b610d6c60405180606001604052806000815260200160008152602001606081525090565b815260200190600190039081610d485790505b50905060005b8251811015610ea1576000838281518110610da257610da261183d565b60200260200101519050600360008281526020019081526020016000206040518060600160405290816000820154815260200160018201548152602001600282018054610dee906117e2565b80601f0160208091040260200160405190810160405280929190818152602001828054610e1a906117e2565b8015610e675780601f10610e3c57610100808354040283529160200191610e67565b820191906000526020600020905b815481529060010190602001808311610e4a57829003601f168201915b505050505081525050838381518110610e8257610e8261183d565b6020026020010181905250508080610e9990611816565b915050610d85565b509392505050565b6000818152600160209081526040808320600701805482518185028101850190935280835260609493830182828015610f0157602002820191906000526020600020905b815481526020019060010190808311610eed575b505050505090506000815167ffffffffffffffff811115610f2457610f24611285565b604051908082528060200260200182016040528015610f8257816020015b610f6f604051806060016040528060006001600160a01b0316815260200160608152602001600081525090565b815260200190600190039081610f425790505b50905060005b8251811015610ea15760026000848381518110610fa757610fa761183d565b602002602001015181526020019081526020016000206040518060600160405290816000820160009054906101000a90046001600160a01b03166001600160a01b03166001600160a01b03168152602001600182018054611007906117e2565b80601f0160208091040260200160405190810160405280929190818152602001828054611033906117e2565b80156110805780601f1061105557610100808354040283529160200191611080565b820191906000526020600020905b81548152906001019060200180831161106357829003601f168201915b505050505081526020016002820154815250508282815181106110a5576110a561183d565b602002602001018190525080806110bb90611816565b915050610f88565b600260205260009081526040902080546001820180546001600160a01b0390921692916110ef906117e2565b80601f016020809104026020016040519081016040528092919081815260200182805461111b906117e2565b80156111685780601f1061113d57610100808354040283529160200191611168565b820191906000526020600020905b81548152906001019060200180831161114b57829003601f168201915b5050505050908060020154905083565b600480546000918261118983611816565b9190505550600454905090565b8280546111a2906117e2565b90600052602060002090601f0160209004810192826111c4576000855561120a565b82601f106111dd57805160ff191683800117855561120a565b8280016001018555821561120a579182015b8281111561120a5782518255916020019190600101906111ef565b50611216929150611254565b5090565b82805482825590600052602060002090810192821561120a579160200282018281111561120a5782518255916020019190600101906111ef565b5b808211156112165760008155600101611255565b80356001600160a01b038116811461128057600080fd5b919050565b634e487b7160e01b600052604160045260246000fd5b600082601f8301126112ac57600080fd5b813567ffffffffffffffff808211156112c7576112c7611285565b604051601f8301601f19908116603f011681019082821181831017156112ef576112ef611285565b8160405283815286602085880101111561130857600080fd5b836020870160208301376000602085830101528094505050505092915050565b60008060006060848603121561133d57600080fd5b8335925061134d60208501611269565b9150604084013567ffffffffffffffff81111561136957600080fd5b6113758682870161129b565b9150509250925092565b60006020828403121561139157600080fd5b5035919050565b6000815180845260005b818110156113be576020818501810151868301820152016113a2565b818111156113d0576000602083870101525b50601f01601f19169290920160200192915050565b87815260e0602082015260006113fe60e0830189611398565b6001600160a01b03888116604085015283820360608501526114208289611398565b908716608085015283810360a0850152905061143c8186611398565b9150508260c083015298975050505050505050565b8381528260208201526060604082015260006114706060830184611398565b95945050505050565b60008060006060848603121561148e57600080fd5b8335925060208401359150604084013567ffffffffffffffff81111561136957600080fd5b600080600080600060a086880312156114cb57600080fd5b853567ffffffffffffffff808211156114e357600080fd5b6114ef89838a0161129b565b96506114fd60208901611269565b9550604088013591508082111561151357600080fd5b61151f89838a0161129b565b945061152d60608901611269565b9350608088013591508082111561154357600080fd5b506115508882890161129b565b9150509295509295909350565b600081518084526020808501945080840160005b8381101561158d57815187529582019590820190600101611571565b509495945050505050565b60006020808301818452808551808352604092508286019150828160051b87010184880160005b838110156116b157603f1989840301855281516101208151855288820151818a8701526115ee82870182611398565b91505087820151611609898701826001600160a01b03169052565b50606080830151868303828801526116218382611398565b9250505060808083015161163f828801826001600160a01b03169052565b505060a080830151868303828801526116588382611398565b9250505060c080830151818701525060e0808301518683038288015261167e838261155d565b92505050610100808301519250858203818701525061169d818361155d565b9689019694505050908601906001016115bf565b509098975050505050505050565b60006020808301818452808551808352604092508286019150828160051b87010184880160005b838110156116b157888303603f190185528151805184528781015188850152860151606087850181905261171c81860183611398565b9689019694505050908601906001016116e6565b60006020808301818452808551808352604092508286019150828160051b87010184880160005b838110156116b157888303603f19018552815180516001600160a01b031684528781015160608986018190529061179082870182611398565b92890151958901959095525094870194925090860190600101611757565b6001600160a01b03841681526060602082018190526000906117d290830185611398565b9050826040830152949350505050565b600181811c908216806117f657607f821691505b602082108103610ca957634e487b7160e01b600052602260045260246000fd5b60006001820161183657634e487b7160e01b600052601160045260246000fd5b5060010190565b634e487b7160e01b600052603260045260246000fdfea2646970667358221220d27d63d71b741caadcdf3ff20c2d9571756df3f1437eaa78c1c8e5624bde09c464736f6c634300080d0033",
  "immutableReferences": {},
  "source": "// SPDX-License-Identifier: MIT\npragma solidity ^0.8.0;\n\ncontract SupplyChainTracker {\n    uint256 public productCount;\n\n    mapping(uint256 => Product) public products;\n    mapping(uint256 => OwnershipEvent) public ownershipEvents;\n    mapping(uint256 => SensorData) public sensorData;\n\n    constructor() {\n        productCount = 0;\n    }\n\n    struct Product {\n        uint256 id;\n        string name;\n        address manufacturer;\n        string serialNumber;\n        address currentOwner;\n        string currentLocation;\n        uint256 timestamp;\n        uint[] ownershipEventIds;\n        uint[] sensorEventIds;\n    }\n\n    struct OwnershipEvent {\n        address newOwner;\n        string newLocation;\n        uint256 timestamp;\n    }\n\n    struct SensorData {\n        uint timestamp;\n        uint temperature; // Esempio di dato sensoriale\n        string location; // Esempio di dato sensoriale\n    }\n\n    function addProduct(\n        string memory _name,\n        address _manufacturer,\n        string memory _serialNumber,\n        address _initialOwner,\n        string memory _initialLocation\n    ) public {\n        require(msg.sender == _manufacturer, \"Only manufacturer can add products\");\n\n        products[productCount] = Product({\n            id: productCount,\n            name: _name,\n            manufacturer: _manufacturer,\n            serialNumber: _serialNumber,\n            currentOwner: _initialOwner,\n            currentLocation: _initialLocation,\n            timestamp: block.timestamp,\n            ownershipEventIds: new uint[](0),\n            sensorEventIds: new uint[](0)\n        });\n\n        productCount++;\n    }\n\n    function transferOwnership(uint256 _productId, address _newOwner, string memory _newLocation) public {\n        require(msg.sender == products[_productId].currentOwner, \"Only the current owner can transfer ownership\");\n\n        products[_productId].currentOwner = _newOwner;\n        products[_productId].currentLocation = _newLocation;\n\n        uint eventId = generateEventId();\n        ownershipEvents[eventId] = OwnershipEvent(_newOwner, _newLocation, block.timestamp);\n        products[_productId].ownershipEventIds.push(eventId);\n    }\n\n    // Funzione per generare un ID evento univoco\n    uint private eventIdCounter;\n    function generateEventId() private returns (uint) {\n        eventIdCounter++;\n        return eventIdCounter;\n    }\n\n    // Funzione per ottenere la storia degli eventi di un prodotto\n    function getOwnershipHistory(uint256 _productId) public view returns (OwnershipEvent[] memory) {\n        uint[] memory eventIds = products[_productId].ownershipEventIds;\n        OwnershipEvent[] memory history = new OwnershipEvent[](eventIds.length);\n\n        for (uint i = 0; i < eventIds.length; i++) {\n            history[i] = ownershipEvents[eventIds[i]];\n        }\n\n        return history;\n    }\n\n    // Funzione per ottenere l'elenco dei prodotti\n    function getProducts() public view returns (Product[] memory) {\n        Product[] memory history = new Product[](productCount);\n\n        for (uint i = 0; i < productCount; i++) {\n            history[i] = products[i];\n        }\n\n        return history;\n    }\n\n    // Funzione per registrare i dati dei sensori\n    function recordSensorData(uint _productId, uint _temperature, string memory _location) public {\n        require(msg.sender == products[_productId].currentOwner, \"Only the current owner can record sensor data\");\n\n        uint eventId = generateEventId();\n        sensorData[eventId] = SensorData(block.timestamp, _temperature, _location);\n        products[_productId].sensorEventIds.push(eventId);\n    }\n\n    // Funzione per ottenere i dati dei sensori di un prodotto\n    function getSensorData(uint _productId) public view returns (SensorData[] memory) {\n        uint[] memory eventIds = products[_productId].sensorEventIds;\n        SensorData[] memory data = new SensorData[](eventIds.length);\n\n        for (uint i = 0; i < eventIds.length; i++) {\n            uint index = eventIds[i];\n            data[i] = sensorData[index];\n        }\n\n        return data;\n    }\n}\n\n",
  "sourcePath": "/home/matteo/ChainSync/ChainSync/contracts/SupplyChainTracker.sol",
  "compiler": {
    "name": "solc",
    "version": "0.8.13+commit.abaa5c0e.Emscripten.clang"
  },
  "schemaVersion": "3.4.16",
  "updatedAt": "2024-08-05T18:49:45.783Z",
  "networkType": "ethereum",
  "devdoc": {
    "kind": "dev",
    "methods": {},
    "version": 1
  },
  "userdoc": {
    "kind": "user",
    "methods": {},
    "version": 1
  }
}